Archive member included to satisfy reference by file (symbol)

c:/nxp/mcuxpressoide_11.3.1_5262/ide/plugins/com.nxp.mcuxpresso.tools.win32_11.3.0.202008311133/tools/bin/../lib/gcc/arm-none-eabi/9.3.1/../../../../arm-none-eabi/lib/thumb/v6-m/nofp\libcr_semihost_nf.a(_cr__main.o)
                              ./startup/startup_mkv10z1287.o (__main)
c:/nxp/mcuxpressoide_11.3.1_5262/ide/plugins/com.nxp.mcuxpresso.tools.win32_11.3.0.202008311133/tools/bin/../lib/gcc/arm-none-eabi/9.3.1/../../../../arm-none-eabi/lib/thumb/v6-m/nofp\libcr_c.a(memset.o)
                              ./drivers/fsl_uart.o (memset)
c:/nxp/mcuxpressoide_11.3.1_5262/ide/plugins/com.nxp.mcuxpresso.tools.win32_11.3.0.202008311133/tools/bin/../lib/gcc/arm-none-eabi/9.3.1/../../../../arm-none-eabi/lib/thumb/v6-m/nofp\libcr_c.a(alloc.o)
                              ./drivers/fsl_common.o (malloc)
c:/nxp/mcuxpressoide_11.3.1_5262/ide/plugins/com.nxp.mcuxpresso.tools.win32_11.3.0.202008311133/tools/bin/../lib/gcc/arm-none-eabi/9.3.1/../../../../arm-none-eabi/lib/thumb/v6-m/nofp\libcr_c.a(initio.o)
                              c:/nxp/mcuxpressoide_11.3.1_5262/ide/plugins/com.nxp.mcuxpresso.tools.win32_11.3.0.202008311133/tools/bin/../lib/gcc/arm-none-eabi/9.3.1/../../../../arm-none-eabi/lib/thumb/v6-m/nofp\libcr_semihost_nf.a(_cr__main.o) (_initio)
c:/nxp/mcuxpressoide_11.3.1_5262/ide/plugins/com.nxp.mcuxpresso.tools.win32_11.3.0.202008311133/tools/bin/../lib/gcc/arm-none-eabi/9.3.1/../../../../arm-none-eabi/lib/thumb/v6-m/nofp\libcr_c.a(setvbuf.o)
                              c:/nxp/mcuxpressoide_11.3.1_5262/ide/plugins/com.nxp.mcuxpresso.tools.win32_11.3.0.202008311133/tools/bin/../lib/gcc/arm-none-eabi/9.3.1/../../../../arm-none-eabi/lib/thumb/v6-m/nofp\libcr_c.a(initio.o) (setvbuf)
c:/nxp/mcuxpressoide_11.3.1_5262/ide/plugins/com.nxp.mcuxpresso.tools.win32_11.3.0.202008311133/tools/bin/../lib/gcc/arm-none-eabi/9.3.1/../../../../arm-none-eabi/lib/thumb/v6-m/nofp\libcr_c.a(memcpy.o)
                              c:/nxp/mcuxpressoide_11.3.1_5262/ide/plugins/com.nxp.mcuxpresso.tools.win32_11.3.0.202008311133/tools/bin/../lib/gcc/arm-none-eabi/9.3.1/../../../../arm-none-eabi/lib/thumb/v6-m/nofp\libcr_c.a(alloc.o) (memcpy)
c:/nxp/mcuxpressoide_11.3.1_5262/ide/plugins/com.nxp.mcuxpresso.tools.win32_11.3.0.202008311133/tools/bin/../lib/gcc/arm-none-eabi/9.3.1/../../../../arm-none-eabi/lib/thumb/v6-m/nofp\libcr_c.a(__init_alloc.o)
                              c:/nxp/mcuxpressoide_11.3.1_5262/ide/plugins/com.nxp.mcuxpresso.tools.win32_11.3.0.202008311133/tools/bin/../lib/gcc/arm-none-eabi/9.3.1/../../../../arm-none-eabi/lib/thumb/v6-m/nofp\libcr_c.a(alloc.o) (__heaps)
c:/nxp/mcuxpressoide_11.3.1_5262/ide/plugins/com.nxp.mcuxpresso.tools.win32_11.3.0.202008311133/tools/bin/../lib/gcc/arm-none-eabi/9.3.1/../../../../arm-none-eabi/lib/thumb/v6-m/nofp\libcr_c.a(_cr_sbrk.o)
                              c:/nxp/mcuxpressoide_11.3.1_5262/ide/plugins/com.nxp.mcuxpresso.tools.win32_11.3.0.202008311133/tools/bin/../lib/gcc/arm-none-eabi/9.3.1/../../../../arm-none-eabi/lib/thumb/v6-m/nofp\libcr_c.a(alloc.o) (_sbrk)
c:/nxp/mcuxpressoide_11.3.1_5262/ide/plugins/com.nxp.mcuxpresso.tools.win32_11.3.0.202008311133/tools/bin/../lib/gcc/arm-none-eabi/9.3.1/../../../../arm-none-eabi/lib/thumb/v6-m/nofp\libcr_c.a(_fdopen.o)
                              c:/nxp/mcuxpressoide_11.3.1_5262/ide/plugins/com.nxp.mcuxpresso.tools.win32_11.3.0.202008311133/tools/bin/../lib/gcc/arm-none-eabi/9.3.1/../../../../arm-none-eabi/lib/thumb/v6-m/nofp\libcr_c.a(initio.o) (_fdopen)
c:/nxp/mcuxpressoide_11.3.1_5262/ide/plugins/com.nxp.mcuxpresso.tools.win32_11.3.0.202008311133/tools/bin/../lib/gcc/arm-none-eabi/9.3.1/../../../../arm-none-eabi/lib/thumb/v6-m/nofp\libcr_c.a(errno.o)
                              c:/nxp/mcuxpressoide_11.3.1_5262/ide/plugins/com.nxp.mcuxpresso.tools.win32_11.3.0.202008311133/tools/bin/../lib/gcc/arm-none-eabi/9.3.1/../../../../arm-none-eabi/lib/thumb/v6-m/nofp\libcr_c.a(_cr_sbrk.o) (errno)
c:/nxp/mcuxpressoide_11.3.1_5262/ide/plugins/com.nxp.mcuxpresso.tools.win32_11.3.0.202008311133/tools/bin/../lib/gcc/arm-none-eabi/9.3.1/../../../../arm-none-eabi/lib/thumb/v6-m/nofp\libcr_c.a(fclose.o)
                              c:/nxp/mcuxpressoide_11.3.1_5262/ide/plugins/com.nxp.mcuxpresso.tools.win32_11.3.0.202008311133/tools/bin/../lib/gcc/arm-none-eabi/9.3.1/../../../../arm-none-eabi/lib/thumb/v6-m/nofp\libcr_c.a(initio.o) (fclose)
c:/nxp/mcuxpressoide_11.3.1_5262/ide/plugins/com.nxp.mcuxpresso.tools.win32_11.3.0.202008311133/tools/bin/../lib/gcc/arm-none-eabi/9.3.1/../../../../arm-none-eabi/lib/thumb/v6-m/nofp\libcr_c.a(fflush.o)
                              c:/nxp/mcuxpressoide_11.3.1_5262/ide/plugins/com.nxp.mcuxpresso.tools.win32_11.3.0.202008311133/tools/bin/../lib/gcc/arm-none-eabi/9.3.1/../../../../arm-none-eabi/lib/thumb/v6-m/nofp\libcr_c.a(fclose.o) (fflush)
c:/nxp/mcuxpressoide_11.3.1_5262/ide/plugins/com.nxp.mcuxpresso.tools.win32_11.3.0.202008311133/tools/bin/../lib/gcc/arm-none-eabi/9.3.1/../../../../arm-none-eabi/lib/thumb/v6-m/nofp\libcr_c.a(fseek.o)
                              c:/nxp/mcuxpressoide_11.3.1_5262/ide/plugins/com.nxp.mcuxpresso.tools.win32_11.3.0.202008311133/tools/bin/../lib/gcc/arm-none-eabi/9.3.1/../../../../arm-none-eabi/lib/thumb/v6-m/nofp\libcr_c.a(_fdopen.o) (fseek)
c:/nxp/mcuxpressoide_11.3.1_5262/ide/plugins/com.nxp.mcuxpresso.tools.win32_11.3.0.202008311133/tools/bin/../lib/gcc/arm-none-eabi/9.3.1/../../../../arm-none-eabi/lib/thumb/v6-m/nofp\libcr_c.a(ftell.o)
                              c:/nxp/mcuxpressoide_11.3.1_5262/ide/plugins/com.nxp.mcuxpresso.tools.win32_11.3.0.202008311133/tools/bin/../lib/gcc/arm-none-eabi/9.3.1/../../../../arm-none-eabi/lib/thumb/v6-m/nofp\libcr_c.a(fseek.o) (ftell)
c:/nxp/mcuxpressoide_11.3.1_5262/ide/plugins/com.nxp.mcuxpresso.tools.win32_11.3.0.202008311133/tools/bin/../lib/gcc/arm-none-eabi/9.3.1/../../../../arm-none-eabi/lib/thumb/v6-m/nofp\libcr_c.a(remove.o)
                              c:/nxp/mcuxpressoide_11.3.1_5262/ide/plugins/com.nxp.mcuxpresso.tools.win32_11.3.0.202008311133/tools/bin/../lib/gcc/arm-none-eabi/9.3.1/../../../../arm-none-eabi/lib/thumb/v6-m/nofp\libcr_c.a(fclose.o) (remove)
c:/nxp/mcuxpressoide_11.3.1_5262/ide/plugins/com.nxp.mcuxpresso.tools.win32_11.3.0.202008311133/tools/bin/../lib/gcc/arm-none-eabi/9.3.1/../../../../arm-none-eabi/lib/thumb/v6-m/nofp\libcr_c.a(strlen.o)
                              c:/nxp/mcuxpressoide_11.3.1_5262/ide/plugins/com.nxp.mcuxpresso.tools.win32_11.3.0.202008311133/tools/bin/../lib/gcc/arm-none-eabi/9.3.1/../../../../arm-none-eabi/lib/thumb/v6-m/nofp\libcr_c.a(remove.o) (strlen)
c:/nxp/mcuxpressoide_11.3.1_5262/ide/plugins/com.nxp.mcuxpresso.tools.win32_11.3.0.202008311133/tools/bin/../lib/gcc/arm-none-eabi/9.3.1/../../../../arm-none-eabi/lib/thumb/v6-m/nofp\libcr_c.a(_cr_check_heap.o)
                              c:/nxp/mcuxpressoide_11.3.1_5262/ide/plugins/com.nxp.mcuxpresso.tools.win32_11.3.0.202008311133/tools/bin/../lib/gcc/arm-none-eabi/9.3.1/../../../../arm-none-eabi/lib/thumb/v6-m/nofp\libcr_c.a(_cr_sbrk.o) (__check_heap_overflow)
c:/nxp/mcuxpressoide_11.3.1_5262/ide/plugins/com.nxp.mcuxpresso.tools.win32_11.3.0.202008311133/tools/bin/../lib/gcc/arm-none-eabi/9.3.1/../../../../arm-none-eabi/lib/thumb/v6-m/nofp\libcr_c.a(_do_fflush.o)
                              c:/nxp/mcuxpressoide_11.3.1_5262/ide/plugins/com.nxp.mcuxpresso.tools.win32_11.3.0.202008311133/tools/bin/../lib/gcc/arm-none-eabi/9.3.1/../../../../arm-none-eabi/lib/thumb/v6-m/nofp\libcr_c.a(fflush.o) (_do_fflush)
c:/nxp/mcuxpressoide_11.3.1_5262/ide/plugins/com.nxp.mcuxpresso.tools.win32_11.3.0.202008311133/tools/bin/../lib/gcc/arm-none-eabi/9.3.1/../../../../arm-none-eabi/lib/thumb/v6-m/nofp\libcr_c.a(_fflush.o)
                              c:/nxp/mcuxpressoide_11.3.1_5262/ide/plugins/com.nxp.mcuxpresso.tools.win32_11.3.0.202008311133/tools/bin/../lib/gcc/arm-none-eabi/9.3.1/../../../../arm-none-eabi/lib/thumb/v6-m/nofp\libcr_c.a(_do_fflush.o) (_fflush)
c:/nxp/mcuxpressoide_11.3.1_5262/ide/plugins/com.nxp.mcuxpresso.tools.win32_11.3.0.202008311133/tools/bin/../lib/gcc/arm-none-eabi/9.3.1/../../../../arm-none-eabi/lib/thumb/v6-m/nofp\libcr_c.a(_writebuf.o)
                              c:/nxp/mcuxpressoide_11.3.1_5262/ide/plugins/com.nxp.mcuxpresso.tools.win32_11.3.0.202008311133/tools/bin/../lib/gcc/arm-none-eabi/9.3.1/../../../../arm-none-eabi/lib/thumb/v6-m/nofp\libcr_c.a(_fflush.o) (_Cwritebuf)
c:/nxp/mcuxpressoide_11.3.1_5262/ide/plugins/com.nxp.mcuxpresso.tools.win32_11.3.0.202008311133/tools/bin/../lib/gcc/arm-none-eabi/9.3.1/../../../../arm-none-eabi/lib/thumb/v6-m/nofp\libcr_c.a(_deferredlazyseek.o)
                              c:/nxp/mcuxpressoide_11.3.1_5262/ide/plugins/com.nxp.mcuxpresso.tools.win32_11.3.0.202008311133/tools/bin/../lib/gcc/arm-none-eabi/9.3.1/../../../../arm-none-eabi/lib/thumb/v6-m/nofp\libcr_c.a(_do_fflush.o) (_deferredlazyseek)
c:/nxp/mcuxpressoide_11.3.1_5262/ide/plugins/com.nxp.mcuxpresso.tools.win32_11.3.0.202008311133/tools/bin/../lib/gcc/arm-none-eabi/9.3.1/thumb/v6-m/nofp\libcr_eabihelpers.a(division_32.o)
                              ./source/inverter.o (__aeabi_idiv)
c:/nxp/mcuxpressoide_11.3.1_5262/ide/plugins/com.nxp.mcuxpresso.tools.win32_11.3.0.202008311133/tools/bin/../lib/gcc/arm-none-eabi/9.3.1/thumb/v6-m/nofp\libcr_eabihelpers.a(division_64.o)
                              ./source/flexstart.o (__aeabi_ldivmod)
c:/nxp/mcuxpressoide_11.3.1_5262/ide/plugins/com.nxp.mcuxpresso.tools.win32_11.3.0.202008311133/tools/bin/../lib/gcc/arm-none-eabi/9.3.1/thumb/v6-m/nofp\libcr_eabihelpers.a(division_idiv0.o)
                              c:/nxp/mcuxpressoide_11.3.1_5262/ide/plugins/com.nxp.mcuxpresso.tools.win32_11.3.0.202008311133/tools/bin/../lib/gcc/arm-none-eabi/9.3.1/thumb/v6-m/nofp\libcr_eabihelpers.a(division_32.o) (__aeabi_idiv0)
c:/nxp/mcuxpressoide_11.3.1_5262/ide/plugins/com.nxp.mcuxpresso.tools.win32_11.3.0.202008311133/tools/bin/../lib/gcc/arm-none-eabi/9.3.1/thumb/v6-m/nofp\libcr_eabihelpers.a(llong.o)
                              ./source/flexstart.o (__aeabi_lmul)
c:/nxp/mcuxpressoide_11.3.1_5262/ide/plugins/com.nxp.mcuxpresso.tools.win32_11.3.0.202008311133/tools/bin/../lib/gcc/arm-none-eabi/9.3.1/thumb/v6-m/nofp\libcr_eabihelpers.a(memcpy.o)
                              c:/nxp/mcuxpressoide_11.3.1_5262/ide/plugins/com.nxp.mcuxpresso.tools.win32_11.3.0.202008311133/tools/bin/../lib/gcc/arm-none-eabi/9.3.1/../../../../arm-none-eabi/lib/thumb/v6-m/nofp\libcr_c.a(memcpy.o) (__aeabi_memcpy)
c:/nxp/mcuxpressoide_11.3.1_5262/ide/plugins/com.nxp.mcuxpresso.tools.win32_11.3.0.202008311133/tools/bin/../lib/gcc/arm-none-eabi/9.3.1/thumb/v6-m/nofp\libcr_eabihelpers.a(thumb1_switch_helpers.o)
                              ./drivers/fsl_clock.o (__gnu_thumb1_case_uqi)
c:/nxp/mcuxpressoide_11.3.1_5262/ide/plugins/com.nxp.mcuxpresso.tools.win32_11.3.0.202008311133/tools/bin/../lib/gcc/arm-none-eabi/9.3.1/../../../../arm-none-eabi/lib/thumb/v6-m/nofp\libcr_semihost_nf.a(__ciob.o)
                              c:/nxp/mcuxpressoide_11.3.1_5262/ide/plugins/com.nxp.mcuxpresso.tools.win32_11.3.0.202008311133/tools/bin/../lib/gcc/arm-none-eabi/9.3.1/../../../../arm-none-eabi/lib/thumb/v6-m/nofp\libcr_c.a(initio.o) (__Ciob)
c:/nxp/mcuxpressoide_11.3.1_5262/ide/plugins/com.nxp.mcuxpresso.tools.win32_11.3.0.202008311133/tools/bin/../lib/gcc/arm-none-eabi/9.3.1/../../../../arm-none-eabi/lib/thumb/v6-m/nofp\libcr_semihost_nf.a(__sys_appexit.o)
                              c:/nxp/mcuxpressoide_11.3.1_5262/ide/plugins/com.nxp.mcuxpresso.tools.win32_11.3.0.202008311133/tools/bin/../lib/gcc/arm-none-eabi/9.3.1/../../../../arm-none-eabi/lib/thumb/v6-m/nofp\libcr_c.a(alloc.o) (__sys_appexit)
c:/nxp/mcuxpressoide_11.3.1_5262/ide/plugins/com.nxp.mcuxpresso.tools.win32_11.3.0.202008311133/tools/bin/../lib/gcc/arm-none-eabi/9.3.1/../../../../arm-none-eabi/lib/thumb/v6-m/nofp\libcr_semihost_nf.a(__sys_close.o)
                              c:/nxp/mcuxpressoide_11.3.1_5262/ide/plugins/com.nxp.mcuxpresso.tools.win32_11.3.0.202008311133/tools/bin/../lib/gcc/arm-none-eabi/9.3.1/../../../../arm-none-eabi/lib/thumb/v6-m/nofp\libcr_c.a(fclose.o) (__sys_close)
c:/nxp/mcuxpressoide_11.3.1_5262/ide/plugins/com.nxp.mcuxpresso.tools.win32_11.3.0.202008311133/tools/bin/../lib/gcc/arm-none-eabi/9.3.1/../../../../arm-none-eabi/lib/thumb/v6-m/nofp\libcr_semihost_nf.a(__sys_flen.o)
                              c:/nxp/mcuxpressoide_11.3.1_5262/ide/plugins/com.nxp.mcuxpresso.tools.win32_11.3.0.202008311133/tools/bin/../lib/gcc/arm-none-eabi/9.3.1/../../../../arm-none-eabi/lib/thumb/v6-m/nofp\libcr_c.a(fseek.o) (__sys_flen)
c:/nxp/mcuxpressoide_11.3.1_5262/ide/plugins/com.nxp.mcuxpresso.tools.win32_11.3.0.202008311133/tools/bin/../lib/gcc/arm-none-eabi/9.3.1/../../../../arm-none-eabi/lib/thumb/v6-m/nofp\libcr_semihost_nf.a(__sys_istty.o)
                              c:/nxp/mcuxpressoide_11.3.1_5262/ide/plugins/com.nxp.mcuxpresso.tools.win32_11.3.0.202008311133/tools/bin/../lib/gcc/arm-none-eabi/9.3.1/../../../../arm-none-eabi/lib/thumb/v6-m/nofp\libcr_c.a(fseek.o) (__sys_istty)
c:/nxp/mcuxpressoide_11.3.1_5262/ide/plugins/com.nxp.mcuxpresso.tools.win32_11.3.0.202008311133/tools/bin/../lib/gcc/arm-none-eabi/9.3.1/../../../../arm-none-eabi/lib/thumb/v6-m/nofp\libcr_semihost_nf.a(__sys_remove.o)
                              c:/nxp/mcuxpressoide_11.3.1_5262/ide/plugins/com.nxp.mcuxpresso.tools.win32_11.3.0.202008311133/tools/bin/../lib/gcc/arm-none-eabi/9.3.1/../../../../arm-none-eabi/lib/thumb/v6-m/nofp\libcr_c.a(remove.o) (__sys_remove)
c:/nxp/mcuxpressoide_11.3.1_5262/ide/plugins/com.nxp.mcuxpresso.tools.win32_11.3.0.202008311133/tools/bin/../lib/gcc/arm-none-eabi/9.3.1/../../../../arm-none-eabi/lib/thumb/v6-m/nofp\libcr_semihost_nf.a(__sys_rename.o)
                              c:/nxp/mcuxpressoide_11.3.1_5262/ide/plugins/com.nxp.mcuxpresso.tools.win32_11.3.0.202008311133/tools/bin/../lib/gcc/arm-none-eabi/9.3.1/../../../../arm-none-eabi/lib/thumb/v6-m/nofp\libcr_c.a(remove.o) (__sys_rename)
c:/nxp/mcuxpressoide_11.3.1_5262/ide/plugins/com.nxp.mcuxpresso.tools.win32_11.3.0.202008311133/tools/bin/../lib/gcc/arm-none-eabi/9.3.1/../../../../arm-none-eabi/lib/thumb/v6-m/nofp\libcr_semihost_nf.a(__sys_seek.o)
                              c:/nxp/mcuxpressoide_11.3.1_5262/ide/plugins/com.nxp.mcuxpresso.tools.win32_11.3.0.202008311133/tools/bin/../lib/gcc/arm-none-eabi/9.3.1/../../../../arm-none-eabi/lib/thumb/v6-m/nofp\libcr_c.a(_writebuf.o) (__sys_seek)
c:/nxp/mcuxpressoide_11.3.1_5262/ide/plugins/com.nxp.mcuxpresso.tools.win32_11.3.0.202008311133/tools/bin/../lib/gcc/arm-none-eabi/9.3.1/../../../../arm-none-eabi/lib/thumb/v6-m/nofp\libcr_semihost_nf.a(__sys_tmpnam.o)
                              c:/nxp/mcuxpressoide_11.3.1_5262/ide/plugins/com.nxp.mcuxpresso.tools.win32_11.3.0.202008311133/tools/bin/../lib/gcc/arm-none-eabi/9.3.1/../../../../arm-none-eabi/lib/thumb/v6-m/nofp\libcr_c.a(fclose.o) (__sys_tmpnam)
c:/nxp/mcuxpressoide_11.3.1_5262/ide/plugins/com.nxp.mcuxpresso.tools.win32_11.3.0.202008311133/tools/bin/../lib/gcc/arm-none-eabi/9.3.1/../../../../arm-none-eabi/lib/thumb/v6-m/nofp\libcr_semihost_nf.a(__sys_write.o)
                              c:/nxp/mcuxpressoide_11.3.1_5262/ide/plugins/com.nxp.mcuxpresso.tools.win32_11.3.0.202008311133/tools/bin/../lib/gcc/arm-none-eabi/9.3.1/../../../../arm-none-eabi/lib/thumb/v6-m/nofp\libcr_c.a(alloc.o) (__sys_write)

Discarded input sections

 .text          0x00000000        0x0 ./startup/startup_mkv10z1287.o
 .data          0x00000000        0x0 ./startup/startup_mkv10z1287.o
 .bss           0x00000000        0x0 ./startup/startup_mkv10z1287.o
 .text          0x00000000        0x0 ./source/flexstart.o
 .data          0x00000000        0x0 ./source/flexstart.o
 .bss           0x00000000        0x0 ./source/flexstart.o
 .text          0x00000000        0x0 ./source/inverter.o
 .data          0x00000000        0x0 ./source/inverter.o
 .bss           0x00000000        0x0 ./source/inverter.o
 .text.INV_get_V_dc
                0x00000000        0xc ./source/inverter.o
 .text.INV_get_V_s1
                0x00000000        0xc ./source/inverter.o
 .text.INV_get_V_s2
                0x00000000        0xc ./source/inverter.o
 .text.INV_get_I_dc
                0x00000000        0xc ./source/inverter.o
 .text          0x00000000        0x0 ./source/main.o
Memory Configuration

Name             Origin             Length             Attributes
PROGRAM_FLASH    0x00000000         0x00010000         xr
SRAM             0x1ffff000         0x00004000         xrw
*default*        0x00000000         0xffffffff

Linker script and memory map

LOAD ./startup/startup_mkv10z1287.o
LOAD ./source/flexstart.o
LOAD ./source/inverter.o
LOAD ./source/main.o
LOAD ./source/moving_average.o
LOAD ./source/mtb.o
LOAD ./source/semihost_hardfault.o
LOAD ./source/sinus.o
LOAD ./source/test_pin.o
LOAD ./drivers/fsl_adc16.o
LOAD ./drivers/fsl_clock.o
LOAD ./drivers/fsl_cmp.o
LOAD ./drivers/fsl_common.o
LOAD ./drivers/fsl_ftm.o
LOAD ./drivers/fsl_gpio.o
LOAD ./drivers/fsl_pdb.o
LOAD ./drivers/fsl_sim.o
LOAD ./drivers/fsl_uart.o
LOAD ./board/board.o
LOAD ./board/clock_config.o
LOAD ./board/peripherals.o
LOAD ./board/pin_mux.o
LOAD ./FreemasterComUart/freemaster_Kxx.o
LOAD ./FreemasterComUart/freemaster_appcmd.o
LOAD ./FreemasterComUart/freemaster_can.o
LOAD ./FreemasterComUart/freemaster_protocol.o
LOAD ./FreemasterComUart/freemaster_rec.o
LOAD ./FreemasterComUart/freemaster_scope.o
LOAD ./FreemasterComUart/freemaster_serial.o
LOAD ./FreemasterComUart/freemaster_sfio.o
LOAD ./FreemasterComUart/freemaster_tsa.o
LOAD ./CMSIS/system_MKV10Z1287.o
START GROUP
LOAD c:/nxp/mcuxpressoide_11.3.1_5262/ide/plugins/com.nxp.mcuxpresso.tools.win32_11.3.0.202008311133/tools/bin/../lib/gcc/arm-none-eabi/9.3.1/../../../../arm-none-eabi/lib/thumb/v6-m/nofp\libcr_semihost_nf.a
LOAD c:/nxp/mcuxpressoide_11.3.1_5262/ide/plugins/com.nxp.mcuxpresso.tools.win32_11.3.0.202008311133/tools/bin/../lib/gcc/arm-none-eabi/9.3.1/../../../../arm-none-eabi/lib/thumb/v6-m/nofp\libcr_c.a
LOAD c:/nxp/mcuxpressoide_11.3.1_5262/ide/plugins/com.nxp.mcuxpresso.tools.win32_11.3.0.202008311133/tools/bin/../lib/gcc/arm-none-eabi/9.3.1/thumb/v6-m/nofp\libcr_eabihelpers.a
LOAD c:/nxp/mcuxpressoide_11.3.1_5262/ide/plugins/com.nxp.mcuxpresso.tools.win32_11.3.0.202008311133/tools/bin/../lib/gcc/arm-none-eabi/9.3.1/thumb/v6-m/nofp\libgcc.a
END GROUP
                0x00000000                __base_PROGRAM_FLASH = 0x0
                0x00000000                __base_Flash = 0x0
                0x00010000                __top_PROGRAM_FLASH = 0x10000
                0x00010000                __top_Flash = 0x10000
                0x1ffff000                __base_SRAM = 0x1ffff000
                0x1ffff000                __base_RAM = 0x1ffff000
                0x20003000                __top_SRAM = 0x20003000
                0x20003000                __top_RAM = 0x20003000

.text           0x00000000     0x2604
 FILL mask 0xff
                0x00000000                __vectors_start__ = ABSOLUTE (.)
 *(SORT_BY_ALIGNMENT(.isr_vector))
 .isr_vector    0x00000000       0xc0 ./startup/startup_mkv10z1287.o
                0x00000000                g_pfnVectors
                0x00000000                __Vectors
                0x000000c0                . = ALIGN (0x4)
                0x000000c0                __section_table_start = .
                0x000000c0                __data_section_table = .
                0x000000c0        0x4 LONG 0x2604 LOADADDR (.data)
                0x000000c4        0x4 LONG 0x1ffff080 ADDR (.data)
                0x000000c8        0x4 LONG 0x44 SIZEOF (.data)
                0x000000cc                __data_section_table_end = .
                0x000000cc                __bss_section_table = .
                0x000000cc        0x4 LONG 0x1ffff0c8 ADDR (.bss)
                0x000000d0        0x4 LONG 0x114 SIZEOF (.bss)
                0x000000d4                __bss_section_table_end = .
                0x000000d4                __section_table_end = .
 *(SORT_BY_ALIGNMENT(.after_vectors*))
 .after_vectors.reset
                0x000000d4       0x44 ./startup/startup_mkv10z1287.o
                0x000000d4                ResetISR
 .after_vectors
                0x00000118      0x10c ./startup/startup_mkv10z1287.o
                0x00000118                NMI_Handler
                0x0000011c                SVC_Handler
                0x0000011e                PendSV_Handler
                0x00000122                DMA_Error_DriverIRQHandler
                0x00000122                LPTMR0_DriverIRQHandler
                0x00000122                FTM1_DriverIRQHandler
                0x00000122                FTM5_DriverIRQHandler
                0x00000122                FTM2_DriverIRQHandler
                0x00000122                SPI0_DriverIRQHandler
                0x00000122                I2C0_DriverIRQHandler
                0x00000122                LLWU_DriverIRQHandler
                0x00000122                MCG_DriverIRQHandler
                0x00000122                PDB0_PDB1_DriverIRQHandler
                0x00000122                Reserved30_DriverIRQHandler
                0x00000122                CMP1_DriverIRQHandler
                0x00000122                PORTB_PORTC_PORTD_PORTE_DriverIRQHandler
                0x00000122                DMA3_DMA7_DriverIRQHandler
                0x00000122                FTFA_DriverIRQHandler
                0x00000122                FTM0_DriverIRQHandler
                0x00000122                IntDefaultHandler
                0x00000122                FTM3_DriverIRQHandler
                0x00000122                Reserved27_DriverIRQHandler
                0x00000122                DAC0_DriverIRQHandler
                0x00000122                FTM4_DriverIRQHandler
                0x00000122                LVD_LVW_DriverIRQHandler
                0x00000122                DMA0_DMA4_DriverIRQHandler
                0x00000122                DMA1_DMA5_DriverIRQHandler
                0x00000122                Reserved25_DriverIRQHandler
                0x00000122                DMA2_DMA6_DriverIRQHandler
                0x00000122                CMP0_DriverIRQHandler
                0x00000122                ADC0_DriverIRQHandler
                0x00000122                WDOG_EWM_DriverIRQHandler
                0x00000122                PORTA_DriverIRQHandler
                0x00000122                ADC1_DriverIRQHandler
                0x00000124                DMA0_DMA4_IRQHandler
                0x0000012c                DMA1_DMA5_IRQHandler
                0x00000134                DMA2_DMA6_IRQHandler
                0x0000013c                DMA3_DMA7_IRQHandler
                0x00000144                DMA_Error_IRQHandler
                0x0000014c                FTFA_IRQHandler
                0x00000154                LVD_LVW_IRQHandler
                0x0000015c                LLWU_IRQHandler
                0x00000164                I2C0_IRQHandler
                0x0000016c                Reserved25_IRQHandler
                0x00000174                SPI0_IRQHandler
                0x0000017c                Reserved27_IRQHandler
                0x0000018c                UART1_IRQHandler
                0x00000194                Reserved30_IRQHandler
                0x0000019c                ADC0_IRQHandler
                0x000001ac                FTM0_IRQHandler
                0x000001b4                FTM1_IRQHandler
                0x000001bc                FTM2_IRQHandler
                0x000001c4                CMP0_IRQHandler
                0x000001cc                CMP1_IRQHandler
                0x000001d4                FTM3_IRQHandler
                0x000001dc                WDOG_EWM_IRQHandler
                0x000001e4                FTM4_IRQHandler
                0x000001ec                DAC0_IRQHandler
                0x000001f4                FTM5_IRQHandler
                0x000001fc                MCG_IRQHandler
                0x00000204                LPTMR0_IRQHandler
                0x0000020c                PDB0_PDB1_IRQHandler
                0x00000214                PORTA_IRQHandler
                0x0000021c                PORTB_PORTC_PORTD_PORTE_IRQHandler
 .after_vectors.init_data
                0x00000224       0x16 ./startup/startup_mkv10z1287.o
                0x00000224                data_init
 .after_vectors.init_bss
                0x0000023a       0x14 ./startup/startup_mkv10z1287.o
                0x0000023a                bss_init
                0x00000400                . = 0x400
 *fill*         0x0000024e      0x1b2 ff
                0x00000400                PROVIDE (__FLASH_CONFIG_START__ = .)
 *(SORT_BY_ALIGNMENT(.FlashConfig))
 .FlashConfig   0x00000400       0x10 ./startup/startup_mkv10z1287.o
                0x00000400                Flash_Config
                0x00000410                PROVIDE (__FLASH_CONFIG_END__ = .)
                0x00000001                ASSERT (! ((__FLASH_CONFIG_START__ == __FLASH_CONFIG_END__)), Linker Flash Config Support Enabled, but no .FlashConfig section provided within application)
 *(SORT_BY_ALIGNMENT(.text*))
 .text.FLEX_reset
                0x00000410       0x10 ./source/flexstart.o
                0x00000410                FLEX_reset
 .text.FLEX_interrupt_handler
                0x00000420      0x1b0 ./source/flexstart.o
                0x00000420                FLEX_interrupt_handler
 .text.INV_set_output_voltage_v
                0x000005d0       0x4c ./source/inverter.o
                0x000005d0                INV_set_output_voltage_v
 .text.INV_output_active_v
                0x0000061c       0x48 ./source/inverter.o
                0x0000061c                INV_output_active_v
 .text.INV_process_adc_measurements_tst
                0x00000664       0x64 ./source/inverter.o
                0x00000664                INV_process_adc_measurements_tst
 .text.SysTick_Handler
                0x000006c8       0x1c ./source/main.o
                0x000006c8                SysTick_Handler
 .text.ADC1_IRQHandler
                0x000006e4       0x7c ./source/main.o
                0x000006e4                ADC1_IRQHandler
 .text.HardFault_Handler
                0x00000760       0x2c ./source/semihost_hardfault.o
                0x00000760                HardFault_Handler
 .text.sin_cos  0x0000078c       0x40 ./source/sinus.o
                0x0000078c                sin_cos
 .text.ADC16_Init
                0x000007cc       0xb4 ./drivers/fsl_adc16.o
                0x000007cc                ADC16_Init
 .text.CLOCK_GetFllExtRefClkFreq
                0x00000880       0x3c ./drivers/fsl_clock.o
 .text.CLOCK_GetInternalRefClkSelectFreq
                0x000008bc       0x28 ./drivers/fsl_clock.o
 .text.CLOCK_GetOsc0ErClkFreq
                0x000008e4       0x1c ./drivers/fsl_clock.o
                0x000008e4                CLOCK_GetOsc0ErClkFreq
 .text.CLOCK_GetEr32kClkFreq
                0x00000900       0x40 ./drivers/fsl_clock.o
                0x00000900                CLOCK_GetEr32kClkFreq
 .text.CLOCK_SetSimConfig
                0x00000940       0x2c ./drivers/fsl_clock.o
                0x00000940                CLOCK_SetSimConfig
 .text.CLOCK_GetFllFreq
                0x0000096c       0x48 ./drivers/fsl_clock.o
                0x0000096c                CLOCK_GetFllFreq
 .text.CLOCK_GetOutClkFreq
                0x000009b4       0x34 ./drivers/fsl_clock.o
                0x000009b4                CLOCK_GetOutClkFreq
 .text.CLOCK_GetInternalRefClkFreq
                0x000009e8       0x18 ./drivers/fsl_clock.o
                0x000009e8                CLOCK_GetInternalRefClkFreq
 .text.CLOCK_GetFixedFreqClkFreq
                0x00000a00       0x34 ./drivers/fsl_clock.o
                0x00000a00                CLOCK_GetFixedFreqClkFreq
 .text.CLOCK_GetFreq
                0x00000a34       0x74 ./drivers/fsl_clock.o
                0x00000a34                CLOCK_GetFreq
 .text.CLOCK_SetInternalRefClkConfig
                0x00000aa8       0x74 ./drivers/fsl_clock.o
                0x00000aa8                CLOCK_SetInternalRefClkConfig
 .text.CLOCK_SetFeiMode
                0x00000b1c       0x60 ./drivers/fsl_clock.o
                0x00000b1c                CLOCK_SetFeiMode
 .text.CMP_Init
                0x00000b7c       0xac ./drivers/fsl_cmp.o
                0x00000b7c                CMP_Init
 .text.FTM_Init
                0x00000c28      0x1dc ./drivers/fsl_ftm.o
                0x00000c28                FTM_Init
 .text.FTM_SetupPwm
                0x00000e04      0x178 ./drivers/fsl_ftm.o
                0x00000e04                FTM_SetupPwm
 .text.FTM_UpdatePwmDutycycle
                0x00000f7c       0x94 ./drivers/fsl_ftm.o
                0x00000f7c                FTM_UpdatePwmDutycycle
 .text.PDB_Init
                0x00001010       0x8c ./drivers/fsl_pdb.o
                0x00001010                PDB_Init
 .text.UART_GetInstance
                0x0000109c       0x20 ./drivers/fsl_uart.o
                0x0000109c                UART_GetInstance
 .text.UART_Init
                0x000010bc      0x12c ./drivers/fsl_uart.o
                0x000010bc                UART_Init
 .text.UART_EnableInterrupts
                0x000011e8       0x30 ./drivers/fsl_uart.o
                0x000011e8                UART_EnableInterrupts
 .text.UART0_DriverIRQHandler
                0x00001218       0x1c ./drivers/fsl_uart.o
                0x00001218                UART0_DriverIRQHandler
 .text.UART1_DriverIRQHandler
                0x00001234       0x1c ./drivers/fsl_uart.o
                0x00001234                UART1_DriverIRQHandler
 .text.CLOCK_CONFIG_FllStableDelay
                0x00001250       0x14 ./board/clock_config.o
 .text.BOARD_BootClockRUN
                0x00001264       0x48 ./board/clock_config.o
                0x00001264                BOARD_BootClockRUN
 .text.InitPWM  0x000012ac       0xc4 ./board/peripherals.o
                0x000012ac                InitPWM
 .text.InitPDB  0x00001370       0x44 ./board/peripherals.o
                0x00001370                InitPDB
 .text.InitADC  0x000013b4       0x98 ./board/peripherals.o
                0x000013b4                InitADC
 .text.InitCMP  0x0000144c       0x34 ./board/peripherals.o
                0x0000144c                InitCMP
 .text.systick_kv10z_init
                0x00001480       0x3c ./board/peripherals.o
                0x00001480                systick_kv10z_init
 .text.InitUart
                0x000014bc       0x6c ./board/peripherals.o
                0x000014bc                InitUart
 .text.InitPins
                0x00001528       0x68 ./board/pin_mux.o
                0x00001528                InitPins
 .text.InitPinsFTM
                0x00001590       0x68 ./board/pin_mux.o
                0x00001590                InitPinsFTM
 .text.InitPinsADC
                0x000015f8       0x58 ./board/pin_mux.o
                0x000015f8                InitPinsADC
 .text.InitPinsCMP
                0x00001650       0x3c ./board/pin_mux.o
                0x00001650                InitPinsCMP
 .text.InitPinsUART
                0x0000168c       0x44 ./board/pin_mux.o
                0x0000168c                InitPinsUART
 .text.FMSTR_SetExAddr
                0x000016d0        0xc ./FreemasterComUart/freemaster_Kxx.o
                0x000016d0                FMSTR_SetExAddr
 .text.FMSTR_AddressFromBuffer
                0x000016dc       0x18 ./FreemasterComUart/freemaster_Kxx.o
                0x000016dc                FMSTR_AddressFromBuffer
 .text.FMSTR_Listen
                0x000016f4       0x48 ./FreemasterComUart/freemaster_serial.o
 .text.FMSTR_InitSerial
                0x0000173c       0x1c ./FreemasterComUart/freemaster_serial.o
                0x0000173c                FMSTR_InitSerial
 .text.FMSTR_SendResponse
                0x00001758       0x88 ./FreemasterComUart/freemaster_serial.o
                0x00001758                FMSTR_SendResponse
 .text.FMSTR_ProcessSCI
                0x000017e0      0x168 ./FreemasterComUart/freemaster_serial.o
                0x000017e0                FMSTR_ProcessSCI
 .text.SystemInit
                0x00001948       0x24 ./CMSIS/system_MKV10Z1287.o
                0x00001948                SystemInit
 .text._initio  0x0000196c       0x7c c:/nxp/mcuxpressoide_11.3.1_5262/ide/plugins/com.nxp.mcuxpresso.tools.win32_11.3.0.202008311133/tools/bin/../lib/gcc/arm-none-eabi/9.3.1/../../../../arm-none-eabi/lib/thumb/v6-m/nofp\libcr_c.a(initio.o)
                0x0000196c                _initio
 .text.setvbuf  0x000019e8       0x4c c:/nxp/mcuxpressoide_11.3.1_5262/ide/plugins/com.nxp.mcuxpresso.tools.win32_11.3.0.202008311133/tools/bin/../lib/gcc/arm-none-eabi/9.3.1/../../../../arm-none-eabi/lib/thumb/v6-m/nofp\libcr_c.a(setvbuf.o)
                0x000019e8                setvbuf
 .text._fdopen  0x00001a34       0x74 c:/nxp/mcuxpressoide_11.3.1_5262/ide/plugins/com.nxp.mcuxpresso.tools.win32_11.3.0.202008311133/tools/bin/../lib/gcc/arm-none-eabi/9.3.1/../../../../arm-none-eabi/lib/thumb/v6-m/nofp\libcr_c.a(_fdopen.o)
                0x00001a34                _fdopen
 .text.fclose   0x00001aa8       0x5c c:/nxp/mcuxpressoide_11.3.1_5262/ide/plugins/com.nxp.mcuxpresso.tools.win32_11.3.0.202008311133/tools/bin/../lib/gcc/arm-none-eabi/9.3.1/../../../../arm-none-eabi/lib/thumb/v6-m/nofp\libcr_c.a(fclose.o)
                0x00001aa8                fclose
 .text.fflush   0x00001b04       0x44 c:/nxp/mcuxpressoide_11.3.1_5262/ide/plugins/com.nxp.mcuxpresso.tools.win32_11.3.0.202008311133/tools/bin/../lib/gcc/arm-none-eabi/9.3.1/../../../../arm-none-eabi/lib/thumb/v6-m/nofp\libcr_c.a(fflush.o)
                0x00001b04                fflush
 .text.fseek    0x00001b48       0xf4 c:/nxp/mcuxpressoide_11.3.1_5262/ide/plugins/com.nxp.mcuxpresso.tools.win32_11.3.0.202008311133/tools/bin/../lib/gcc/arm-none-eabi/9.3.1/../../../../arm-none-eabi/lib/thumb/v6-m/nofp\libcr_c.a(fseek.o)
                0x00001b48                fseek
 .text.ftell    0x00001c3c       0x48 c:/nxp/mcuxpressoide_11.3.1_5262/ide/plugins/com.nxp.mcuxpresso.tools.win32_11.3.0.202008311133/tools/bin/../lib/gcc/arm-none-eabi/9.3.1/../../../../arm-none-eabi/lib/thumb/v6-m/nofp\libcr_c.a(ftell.o)
                0x00001c3c                ftell
 .text.strlen   0x00001c84       0x58 c:/nxp/mcuxpressoide_11.3.1_5262/ide/plugins/com.nxp.mcuxpresso.tools.win32_11.3.0.202008311133/tools/bin/../lib/gcc/arm-none-eabi/9.3.1/../../../../arm-none-eabi/lib/thumb/v6-m/nofp\libcr_c.a(strlen.o)
                0x00001c84                strlen
 .text._do_fflush
                0x00001cdc       0x48 c:/nxp/mcuxpressoide_11.3.1_5262/ide/plugins/com.nxp.mcuxpresso.tools.win32_11.3.0.202008311133/tools/bin/../lib/gcc/arm-none-eabi/9.3.1/../../../../arm-none-eabi/lib/thumb/v6-m/nofp\libcr_c.a(_do_fflush.o)
                0x00001cdc                _do_fflush
 .text._fflush  0x00001d24       0x60 c:/nxp/mcuxpressoide_11.3.1_5262/ide/plugins/com.nxp.mcuxpresso.tools.win32_11.3.0.202008311133/tools/bin/../lib/gcc/arm-none-eabi/9.3.1/../../../../arm-none-eabi/lib/thumb/v6-m/nofp\libcr_c.a(_fflush.o)
                0x00001d24                _fflush
 .text._Cwritebuf
                0x00001d84       0x68 c:/nxp/mcuxpressoide_11.3.1_5262/ide/plugins/com.nxp.mcuxpresso.tools.win32_11.3.0.202008311133/tools/bin/../lib/gcc/arm-none-eabi/9.3.1/../../../../arm-none-eabi/lib/thumb/v6-m/nofp\libcr_c.a(_writebuf.o)
                0x00001d84                _Cwritebuf
 .text._deferredlazyseek
                0x00001dec       0x40 c:/nxp/mcuxpressoide_11.3.1_5262/ide/plugins/com.nxp.mcuxpresso.tools.win32_11.3.0.202008311133/tools/bin/../lib/gcc/arm-none-eabi/9.3.1/../../../../arm-none-eabi/lib/thumb/v6-m/nofp\libcr_c.a(_deferredlazyseek.o)
                0x00001dec                _deferredlazyseek
 .text.startup.main
                0x00001e2c       0x16 ./source/main.o
                0x00001e2c                main
 .text.UART0_IRQHandler
                0x00001e42        0x8 ./source/main.o
                0x00001e42                UART0_IRQHandler
 .text.moving_average
                0x00001e4a       0x30 ./source/moving_average.o
                0x00001e4a                moving_average
 .text.ADC16_GetDefaultConfig
                0x00001e7a       0x1c ./drivers/fsl_adc16.o
                0x00001e7a                ADC16_GetDefaultConfig
 .text.ADC16_SetChannelConfig
                0x00001e96       0x22 ./drivers/fsl_adc16.o
                0x00001e96                ADC16_SetChannelConfig
 .text.CLOCK_BootToFeiMode
                0x00001eb8        0x8 ./drivers/fsl_clock.o
                0x00001eb8                CLOCK_BootToFeiMode
 .text.CMP_GetDefaultConfig
                0x00001ec0       0x14 ./drivers/fsl_cmp.o
                0x00001ec0                CMP_GetDefaultConfig
 .text.CMP_SetInputChannels
                0x00001ed4       0x1a ./drivers/fsl_cmp.o
                0x00001ed4                CMP_SetInputChannels
 .text.CMP_SetDACConfig
                0x00001eee       0x1e ./drivers/fsl_cmp.o
                0x00001eee                CMP_SetDACConfig
 .text.FTM_SetupFault
                0x00001f0c       0x4c ./drivers/fsl_ftm.o
                0x00001f0c                FTM_SetupFault
 .text.GPIO_PinInit
                0x00001f58       0x26 ./drivers/fsl_gpio.o
                0x00001f58                GPIO_PinInit
 .text.PDB_GetDefaultConfig
                0x00001f7e       0x10 ./drivers/fsl_pdb.o
                0x00001f7e                PDB_GetDefaultConfig
 .text.UART_GetDefaultConfig
                0x00001f8e       0x14 ./drivers/fsl_uart.o
                0x00001f8e                UART_GetDefaultConfig
 .text.BOARD_InitBootClocks
                0x00001fa2        0x8 ./board/clock_config.o
                0x00001fa2                BOARD_InitBootClocks
 .text.BOARD_InitBootPeripherals
                0x00001faa       0x1c ./board/peripherals.o
                0x00001faa                BOARD_InitBootPeripherals
 .text.BOARD_InitBootPins
                0x00001fc6       0x18 ./board/pin_mux.o
                0x00001fc6                BOARD_InitBootPins
 .text.FMSTR_Isr
                0x00001fde        0x8 ./FreemasterComUart/freemaster_Kxx.o
                0x00001fde                FMSTR_Isr
 .text.FMSTR_CopyToBuffer
                0x00001fe6       0x14 ./FreemasterComUart/freemaster_Kxx.o
                0x00001fe6                FMSTR_CopyToBuffer
 .text.FMSTR_CopyFromBuffer
                0x00001ffa       0x16 ./FreemasterComUart/freemaster_Kxx.o
                0x00001ffa                FMSTR_CopyFromBuffer
 .text.FMSTR_CopyFromBufferWithMask
                0x00002010       0x1e ./FreemasterComUart/freemaster_Kxx.o
                0x00002010                FMSTR_CopyFromBufferWithMask
 .text.FMSTR_Init
                0x0000202e        0xa ./FreemasterComUart/freemaster_protocol.o
                0x0000202e                FMSTR_Init
 .text.FMSTR_GetBoardInfo
                0x00002038       0x1c ./FreemasterComUart/freemaster_protocol.o
                0x00002038                FMSTR_GetBoardInfo
 .text.FMSTR_ReadMem
                0x00002054       0x28 ./FreemasterComUart/freemaster_protocol.o
                0x00002054                FMSTR_ReadMem
 .text.FMSTR_ReadVar
                0x0000207c       0x20 ./FreemasterComUart/freemaster_protocol.o
                0x0000207c                FMSTR_ReadVar
 .text.FMSTR_WriteMem
                0x0000209c       0x20 ./FreemasterComUart/freemaster_protocol.o
                0x0000209c                FMSTR_WriteMem
 .text.FMSTR_WriteMemMask
                0x000020bc       0x20 ./FreemasterComUart/freemaster_protocol.o
                0x000020bc                FMSTR_WriteMemMask
 .text.FMSTR_ProtocolDecoder
                0x000020dc       0x9c ./FreemasterComUart/freemaster_protocol.o
                0x000020dc                FMSTR_ProtocolDecoder
 .text.SystemInitHook
                0x00002178        0x2 ./CMSIS/system_MKV10Z1287.o
                0x00002178                SystemInitHook
 .text.__main   0x0000217a        0xc c:/nxp/mcuxpressoide_11.3.1_5262/ide/plugins/com.nxp.mcuxpresso.tools.win32_11.3.0.202008311133/tools/bin/../lib/gcc/arm-none-eabi/9.3.1/../../../../arm-none-eabi/lib/thumb/v6-m/nofp\libcr_semihost_nf.a(_cr__main.o)
                0x0000217a                __CR_SEMIHOST
                0x0000217a                __main
 .text.memset   0x00002186        0x8 c:/nxp/mcuxpressoide_11.3.1_5262/ide/plugins/com.nxp.mcuxpresso.tools.win32_11.3.0.202008311133/tools/bin/../lib/gcc/arm-none-eabi/9.3.1/../../../../arm-none-eabi/lib/thumb/v6-m/nofp\libcr_c.a(memset.o)
                0x00002186                memset
 .text.free     0x0000218e       0x2c c:/nxp/mcuxpressoide_11.3.1_5262/ide/plugins/com.nxp.mcuxpresso.tools.win32_11.3.0.202008311133/tools/bin/../lib/gcc/arm-none-eabi/9.3.1/../../../../arm-none-eabi/lib/thumb/v6-m/nofp\libcr_c.a(alloc.o)
                0x0000218e                free
 .text.remove   0x000021ba       0x12 c:/nxp/mcuxpressoide_11.3.1_5262/ide/plugins/com.nxp.mcuxpresso.tools.win32_11.3.0.202008311133/tools/bin/../lib/gcc/arm-none-eabi/9.3.1/../../../../arm-none-eabi/lib/thumb/v6-m/nofp\libcr_c.a(remove.o)
                0x000021ba                remove
 .text.__aeabi_division_idivmod
                0x000021cc       0x78 c:/nxp/mcuxpressoide_11.3.1_5262/ide/plugins/com.nxp.mcuxpresso.tools.win32_11.3.0.202008311133/tools/bin/../lib/gcc/arm-none-eabi/9.3.1/thumb/v6-m/nofp\libcr_eabihelpers.a(division_32.o)
                0x000021cc                __aeabi_idivmod
                0x000021cc                __aeabi_idiv
                0x000021d2                __aeabi_uidivmod
                0x000021d2                __aeabi_uidiv
 .text.__aeabi_division_uldivmod
                0x00002244       0x5a c:/nxp/mcuxpressoide_11.3.1_5262/ide/plugins/com.nxp.mcuxpresso.tools.win32_11.3.0.202008311133/tools/bin/../lib/gcc/arm-none-eabi/9.3.1/thumb/v6-m/nofp\libcr_eabihelpers.a(division_64.o)
                0x00002244                __aeabi_uldivmod
 .text.__aeabi_division_ldivmod
                0x0000229e       0x32 c:/nxp/mcuxpressoide_11.3.1_5262/ide/plugins/com.nxp.mcuxpresso.tools.win32_11.3.0.202008311133/tools/bin/../lib/gcc/arm-none-eabi/9.3.1/thumb/v6-m/nofp\libcr_eabihelpers.a(division_64.o)
                0x0000229e                __aeabi_ldivmod
 .text.__aeabi_division_idiv0
                0x000022d0        0x2 c:/nxp/mcuxpressoide_11.3.1_5262/ide/plugins/com.nxp.mcuxpresso.tools.win32_11.3.0.202008311133/tools/bin/../lib/gcc/arm-none-eabi/9.3.1/thumb/v6-m/nofp\libcr_eabihelpers.a(division_idiv0.o)
                0x000022d0                __aeabi_idiv0
 .text.__aeabi_llong_lmul
                0x000022d2       0x2e c:/nxp/mcuxpressoide_11.3.1_5262/ide/plugins/com.nxp.mcuxpresso.tools.win32_11.3.0.202008311133/tools/bin/../lib/gcc/arm-none-eabi/9.3.1/thumb/v6-m/nofp\libcr_eabihelpers.a(llong.o)
                0x000022d2                __aeabi_lmul
 .text.__aeabi_llong_lasr
                0x00002300       0x18 c:/nxp/mcuxpressoide_11.3.1_5262/ide/plugins/com.nxp.mcuxpresso.tools.win32_11.3.0.202008311133/tools/bin/../lib/gcc/arm-none-eabi/9.3.1/thumb/v6-m/nofp\libcr_eabihelpers.a(llong.o)
                0x00002300                __aeabi_lasr
 .text.__aeabi_memset_lowlevel
                0x00002318       0x2a c:/nxp/mcuxpressoide_11.3.1_5262/ide/plugins/com.nxp.mcuxpresso.tools.win32_11.3.0.202008311133/tools/bin/../lib/gcc/arm-none-eabi/9.3.1/thumb/v6-m/nofp\libcr_eabihelpers.a(memcpy.o)
                0x00002318                __aeabi_lowlevel_memset
 .text.__gnu_thumb1_case_uqi
                0x00002342       0x10 c:/nxp/mcuxpressoide_11.3.1_5262/ide/plugins/com.nxp.mcuxpresso.tools.win32_11.3.0.202008311133/tools/bin/../lib/gcc/arm-none-eabi/9.3.1/thumb/v6-m/nofp\libcr_eabihelpers.a(thumb1_switch_helpers.o)
                0x00002342                __gnu_thumb1_case_uqi
 .text.__sys_close
                0x00002352        0xc c:/nxp/mcuxpressoide_11.3.1_5262/ide/plugins/com.nxp.mcuxpresso.tools.win32_11.3.0.202008311133/tools/bin/../lib/gcc/arm-none-eabi/9.3.1/../../../../arm-none-eabi/lib/thumb/v6-m/nofp\libcr_semihost_nf.a(__sys_close.o)
                0x00002352                __sys_close
 .text.__sys_flen
                0x0000235e        0xc c:/nxp/mcuxpressoide_11.3.1_5262/ide/plugins/com.nxp.mcuxpresso.tools.win32_11.3.0.202008311133/tools/bin/../lib/gcc/arm-none-eabi/9.3.1/../../../../arm-none-eabi/lib/thumb/v6-m/nofp\libcr_semihost_nf.a(__sys_flen.o)
                0x0000235e                __sys_flen
 .text.__sys_istty
                0x0000236a        0xc c:/nxp/mcuxpressoide_11.3.1_5262/ide/plugins/com.nxp.mcuxpresso.tools.win32_11.3.0.202008311133/tools/bin/../lib/gcc/arm-none-eabi/9.3.1/../../../../arm-none-eabi/lib/thumb/v6-m/nofp\libcr_semihost_nf.a(__sys_istty.o)
                0x0000236a                __sys_istty
 .text.__sys_remove
                0x00002376        0xc c:/nxp/mcuxpressoide_11.3.1_5262/ide/plugins/com.nxp.mcuxpresso.tools.win32_11.3.0.202008311133/tools/bin/../lib/gcc/arm-none-eabi/9.3.1/../../../../arm-none-eabi/lib/thumb/v6-m/nofp\libcr_semihost_nf.a(__sys_remove.o)
                0x00002376                __sys_remove
 .text.__sys_seek
                0x00002382        0xc c:/nxp/mcuxpressoide_11.3.1_5262/ide/plugins/com.nxp.mcuxpresso.tools.win32_11.3.0.202008311133/tools/bin/../lib/gcc/arm-none-eabi/9.3.1/../../../../arm-none-eabi/lib/thumb/v6-m/nofp\libcr_semihost_nf.a(__sys_seek.o)
                0x00002382                __sys_seek
 .text.__sys_tmpnam
                0x0000238e        0xc c:/nxp/mcuxpressoide_11.3.1_5262/ide/plugins/com.nxp.mcuxpresso.tools.win32_11.3.0.202008311133/tools/bin/../lib/gcc/arm-none-eabi/9.3.1/../../../../arm-none-eabi/lib/thumb/v6-m/nofp\libcr_semihost_nf.a(__sys_tmpnam.o)
                0x0000238e                __sys_tmpnam
 .text.__sys_write
                0x0000239a        0xc c:/nxp/mcuxpressoide_11.3.1_5262/ide/plugins/com.nxp.mcuxpresso.tools.win32_11.3.0.202008311133/tools/bin/../lib/gcc/arm-none-eabi/9.3.1/../../../../arm-none-eabi/lib/thumb/v6-m/nofp\libcr_semihost_nf.a(__sys_write.o)
                0x0000239a                __sys_write
 *(SORT_BY_ALIGNMENT(.rodata) SORT_BY_ALIGNMENT(.rodata.*) SORT_BY_ALIGNMENT(.constdata) SORT_BY_ALIGNMENT(.constdata.*))
 *fill*         0x000023a6        0x2 ff
 .rodata.s_adc16Clocks
                0x000023a8        0x8 ./drivers/fsl_adc16.o
 .rodata.s_cmpClocks
                0x000023b0        0x8 ./drivers/fsl_cmp.o
 .rodata.s_ftmClocks
                0x000023b8       0x18 ./drivers/fsl_ftm.o
 .rodata.s_pdbClocks
                0x000023d0        0x8 ./drivers/fsl_pdb.o
 .rodata.s_uartClock
                0x000023d8        0x8 ./drivers/fsl_uart.o
 .rodata.simConfig_BOARD_BootClockRUN
                0x000023e0        0x8 ./board/clock_config.o
                0x000023e0                simConfig_BOARD_BootClockRUN
 .rodata.__num_Ciob_streams
                0x000023e8        0x4 c:/nxp/mcuxpressoide_11.3.1_5262/ide/plugins/com.nxp.mcuxpresso.tools.win32_11.3.0.202008311133/tools/bin/../lib/gcc/arm-none-eabi/9.3.1/../../../../arm-none-eabi/lib/thumb/v6-m/nofp\libcr_semihost_nf.a(__ciob.o)
                0x000023e8                __num_Ciob_streams
 .rodata.sinus_table
                0x000023ec      0x202 ./source/sinus.o
 .rodata.fllFactorTable.5379
                0x000025ee       0x10 ./drivers/fsl_clock.o
 .rodata._initio.str1.1
                0x000025fe        0x4 c:/nxp/mcuxpressoide_11.3.1_5262/ide/plugins/com.nxp.mcuxpresso.tools.win32_11.3.0.202008311133/tools/bin/../lib/gcc/arm-none-eabi/9.3.1/../../../../arm-none-eabi/lib/thumb/v6-m/nofp\libcr_c.a(initio.o)
                0x00002604                . = ALIGN (0x4)
 *fill*         0x00002602        0x2 ff

.glue_7         0x00002604        0x0
 .glue_7        0x00002604        0x0 linker stubs

.glue_7t        0x00002604        0x0
 .glue_7t       0x00002604        0x0 linker stubs

.vfp11_veneer   0x00002604        0x0
 .vfp11_veneer  0x00002604        0x0 linker stubs

.v4_bx          0x00002604        0x0
 .v4_bx         0x00002604        0x0 linker stubs

.iplt           0x00002604        0x0
 .iplt          0x00002604        0x0 ./startup/startup_mkv10z1287.o

.rel.dyn        0x00002604        0x0
 .rel.iplt      0x00002604        0x0 ./startup/startup_mkv10z1287.o

.ARM.extab
 *(SORT_BY_ALIGNMENT(.ARM.extab*) SORT_BY_ALIGNMENT(.gnu.linkonce.armextab.*))

.ARM.exidx      0x00002604        0x0
                0x00002604                __exidx_start = .
 *(SORT_BY_ALIGNMENT(.ARM.exidx*) SORT_BY_ALIGNMENT(.gnu.linkonce.armexidx.*))
                0x00002604                __exidx_end = .
                0x00002604                _etext = .

.mtb_buffer_default
                0x1ffff000       0x80
 *(SORT_BY_ALIGNMENT(.mtb*))
 .mtb.$RAM1     0x1ffff000       0x80 ./source/mtb.o
                0x1ffff000                __mtb_buffer__

.uninit_RESERVED
                0x1ffff080        0x0
                0x1ffff080                _start_uninit_RESERVED = .
 *(SORT_BY_ALIGNMENT(.bss.$RESERVED*))
                0x1ffff080                . = ALIGN (0x4)
                0x1ffff080                _end_uninit_RESERVED = .

.data           0x1ffff080       0x44 load address 0x00002604
 FILL mask 0xff
                0x1ffff080                _data = .
                [!provide]                PROVIDE (__start_data_RAM = .)
                [!provide]                PROVIDE (__start_data_SRAM = .)
 *(SORT_BY_ALIGNMENT(vtable))
 *(SORT_BY_ALIGNMENT(.ramfunc*))
 *(SORT_BY_ALIGNMENT(CodeQuickAccess))
 *(SORT_BY_ALIGNMENT(DataQuickAccess))
 *(SORT_BY_ALIGNMENT(RamFunction))
 *(SORT_BY_ALIGNMENT(.data*))
 .data.FLEX_t_align
                0x1ffff080        0x8 ./source/flexstart.o
 .data.FLEX_t_break1
                0x1ffff088        0x8 ./source/flexstart.o
 .data.FLEX_t_break2
                0x1ffff090        0x8 ./source/flexstart.o
 .data.flexstart_reset_interval
                0x1ffff098        0x8 ./source/main.o
 .data.FLEX_alignment_voltage
                0x1ffff0a0        0x4 ./source/flexstart.o
 .data.FLEX_frequency
                0x1ffff0a4        0x4 ./source/flexstart.o
 .data.FLEX_sine_amp_control
                0x1ffff0a8        0x4 ./source/flexstart.o
 .data.FLEX_sine_amp_factor
                0x1ffff0ac        0x4 ./source/flexstart.o
 .data.FLEX_sine_amplitude
                0x1ffff0b0        0x4 ./source/flexstart.o
 .data.FLEX_sine_amplitude_min
                0x1ffff0b4        0x4 ./source/flexstart.o
 .data.s_fastIrcFreq
                0x1ffff0b8        0x4 ./drivers/fsl_clock.o
 .data.s_slowIrcFreq
                0x1ffff0bc        0x4 ./drivers/fsl_clock.o
 .data.SystemCoreClock
                0x1ffff0c0        0x4 ./CMSIS/system_MKV10Z1287.o
                0x1ffff0c0                SystemCoreClock
                0x1ffff0c4                . = ALIGN (0x4)
                0x1ffff0c4                _edata = .
                [!provide]                PROVIDE (__end_data_RAM = .)
                [!provide]                PROVIDE (__end_data_SRAM = .)

.igot.plt       0x1ffff0c4        0x0 load address 0x00002648
 .igot.plt      0x1ffff0c4        0x0 ./startup/startup_mkv10z1287.o

.bss            0x1ffff0c8      0x114
                0x1ffff0c8                _bss = .
                [!provide]                PROVIDE (__start_bss_RAM = .)
                [!provide]                PROVIDE (__start_bss_SRAM = .)
 *(SORT_BY_ALIGNMENT(.bss*))
 .bss.FLEX_t_start
                0x1ffff0c8        0x8 ./source/flexstart.o
 .bss.state.3885
                0x1ffff0d0        0x8 ./source/flexstart.o
 .bss.system_time
                0x1ffff0d8        0x8 ./source/main.o
 .bss.INV_adc_data_st
                0x1ffff0e0       0x10 ./source/inverter.o
 .bss.g_xtal0Freq
                0x1ffff0f0        0x4 ./drivers/fsl_clock.o
                0x1ffff0f0                g_xtal0Freq
 .bss.g_xtal32Freq
                0x1ffff0f4        0x4 ./drivers/fsl_clock.o
                0x1ffff0f4                g_xtal32Freq
 .bss.s_uartHandle
                0x1ffff0f8        0x8 ./drivers/fsl_uart.o
 .bss.s_uartIsr
                0x1ffff100        0x4 ./drivers/fsl_uart.o
 .bss.pcm_pRxBuff
                0x1ffff104        0x4 ./FreemasterComUart/freemaster_serial.o
 .bss.pcm_pTxBuff
                0x1ffff108        0x4 ./FreemasterComUart/freemaster_serial.o
 .bss.pcm_wFlags
                0x1ffff10c        0x4 ./FreemasterComUart/freemaster_serial.o
 .bss.errno     0x1ffff110        0x4 c:/nxp/mcuxpressoide_11.3.1_5262/ide/plugins/com.nxp.mcuxpresso.tools.win32_11.3.0.202008311133/tools/bin/../lib/gcc/arm-none-eabi/9.3.1/../../../../arm-none-eabi/lib/thumb/v6-m/nofp\libcr_c.a(errno.o)
                0x1ffff110                errno
 .bss.__Ciob    0x1ffff114       0xb4 c:/nxp/mcuxpressoide_11.3.1_5262/ide/plugins/com.nxp.mcuxpresso.tools.win32_11.3.0.202008311133/tools/bin/../lib/gcc/arm-none-eabi/9.3.1/../../../../arm-none-eabi/lib/thumb/v6-m/nofp\libcr_semihost_nf.a(__ciob.o)
                0x1ffff114                __Ciob
 .bss.direction
                0x1ffff1c8        0x1 ./source/main.o
 .bss.reset_flag.5412
                0x1ffff1c9        0x1 ./source/main.o
 .bss.pcm_bNextAddrIsEx
                0x1ffff1ca        0x1 ./FreemasterComUart/freemaster_Kxx.o
 .bss.pcm_nRxCheckSum
                0x1ffff1cb        0x1 ./FreemasterComUart/freemaster_serial.o
 .bss.pcm_nRxTodo
                0x1ffff1cc        0x1 ./FreemasterComUart/freemaster_serial.o
 .bss.pcm_nTxTodo
                0x1ffff1cd        0x1 ./FreemasterComUart/freemaster_serial.o
 .bss.pcm_pCommBuffer
                0x1ffff1ce        0xe ./FreemasterComUart/freemaster_serial.o
 *(SORT_BY_ALIGNMENT(COMMON))
                0x1ffff1dc                . = ALIGN (0x4)
                0x1ffff1dc                _ebss = .
                [!provide]                PROVIDE (__end_bss_RAM = .)
                [!provide]                PROVIDE (__end_bss_SRAM = .)
                [!provide]                PROVIDE (end = .)

.noinit         0x1ffff1dc        0x0
                0x1ffff1dc                _noinit = .
                [!provide]                PROVIDE (__start_noinit_RAM = .)
                [!provide]                PROVIDE (__start_noinit_SRAM = .)
 *(SORT_BY_ALIGNMENT(.noinit*))
                0x1ffff1dc                . = ALIGN (0x4)
                0x1ffff1dc                _end_noinit = .
                [!provide]                PROVIDE (__end_noinit_RAM = .)
                [!provide]                PROVIDE (__end_noinit_SRAM = .)
                0x00000400                _HeapSize = 0x400

.heap           0x1ffff1dc      0x400
                0x1ffff1dc                _pvHeapStart = .
                0x1ffff5dc                . = (. + _HeapSize)
 *fill*         0x1ffff1dc      0x400 
                0x1ffff5dc                . = ALIGN (0x4)
                0x1ffff5dc                _pvHeapLimit = .
                0x00000400                _StackSize = 0x400

.heap2stackfill
                0x1ffff5dc      0x400
                0x1ffff9dc                . = (. + _StackSize)
 *fill*         0x1ffff5dc      0x400 

.stack          0x20002c00        0x0
                0x20002c00                _vStackBase = .
                0x20002c00                . = ALIGN (0x4)
                0x20003000                _vStackTop = (. + _StackSize)
                0x00000000                _image_start = LOADADDR (.text)
                0x00002648                _image_end = (LOADADDR (.data) + SIZEOF (.data))
                0x00002648                _image_size = (_image_end - _image_start)
OUTPUT(FlexStart2.axf elf32-littlearm)
LOAD linker stubs

.debug_info     0x00000000     0xe848
 .debug_info    0x00000000      0x69d ./startup/startup_mkv10z1287.o
 .debug_info    0x0000069d      0x3f2 ./source/flexstart.o
 .debug_info    0x00000a8f      0xc25 ./source/inverter.o
 .debug_info    0x000016b4      0x7cb ./source/main.o
 .debug_info    0x00001e7f      0x125 ./source/moving_average.o
 .debug_info    0x00001fa4       0x4f ./source/mtb.o
 .debug_info    0x00001ff3       0x38 ./source/semihost_hardfault.o
 .debug_info    0x0000202b      0x1ca ./source/sinus.o
 .debug_info    0x000021f5      0xe00 ./drivers/fsl_adc16.o
 .debug_info    0x00002ff5     0x18bc ./drivers/fsl_clock.o
 .debug_info    0x000048b1      0xb2c ./drivers/fsl_cmp.o
 .debug_info    0x000053dd     0x14e5 ./drivers/fsl_ftm.o
 .debug_info    0x000068c2      0x9a3 ./drivers/fsl_gpio.o
 .debug_info    0x00007265      0xa6e ./drivers/fsl_pdb.o
 .debug_info    0x00007cd3     0x1d60 ./drivers/fsl_uart.o
 .debug_info    0x00009a33      0x816 ./board/clock_config.o
 .debug_info    0x0000a249     0x2395 ./board/peripherals.o
 .debug_info    0x0000c5de      0xcb2 ./board/pin_mux.o
 .debug_info    0x0000d290      0x560 ./FreemasterComUart/freemaster_Kxx.o
 .debug_info    0x0000d7f0      0x714 ./FreemasterComUart/freemaster_protocol.o
 .debug_info    0x0000df04      0x476 ./FreemasterComUart/freemaster_serial.o
 .debug_info    0x0000e37a      0x4ce ./CMSIS/system_MKV10Z1287.o

.debug_abbrev   0x00000000     0x324b
 .debug_abbrev  0x00000000      0x155 ./startup/startup_mkv10z1287.o
 .debug_abbrev  0x00000155      0x248 ./source/flexstart.o
 .debug_abbrev  0x0000039d      0x344 ./source/inverter.o
 .debug_abbrev  0x000006e1      0x227 ./source/main.o
 .debug_abbrev  0x00000908       0xaf ./source/moving_average.o
 .debug_abbrev  0x000009b7       0x43 ./source/mtb.o
 .debug_abbrev  0x000009fa       0x2e ./source/semihost_hardfault.o
 .debug_abbrev  0x00000a28      0x125 ./source/sinus.o
 .debug_abbrev  0x00000b4d      0x35c ./drivers/fsl_adc16.o
 .debug_abbrev  0x00000ea9      0x469 ./drivers/fsl_clock.o
 .debug_abbrev  0x00001312      0x2f4 ./drivers/fsl_cmp.o
 .debug_abbrev  0x00001606      0x386 ./drivers/fsl_ftm.o
 .debug_abbrev  0x0000198c      0x2a0 ./drivers/fsl_gpio.o
 .debug_abbrev  0x00001c2c      0x2b0 ./drivers/fsl_pdb.o
 .debug_abbrev  0x00001edc      0x472 ./drivers/fsl_uart.o
 .debug_abbrev  0x0000234e      0x1f2 ./board/clock_config.o
 .debug_abbrev  0x00002540      0x368 ./board/peripherals.o
 .debug_abbrev  0x000028a8      0x304 ./board/pin_mux.o
 .debug_abbrev  0x00002bac      0x118 ./FreemasterComUart/freemaster_Kxx.o
 .debug_abbrev  0x00002cc4      0x148 ./FreemasterComUart/freemaster_protocol.o
 .debug_abbrev  0x00002e0c      0x2c4 ./FreemasterComUart/freemaster_serial.o
 .debug_abbrev  0x000030d0      0x17b ./CMSIS/system_MKV10Z1287.o

.debug_loc      0x00000000     0x63b0
 .debug_loc     0x00000000      0x234 ./startup/startup_mkv10z1287.o
 .debug_loc     0x00000234      0x27a ./source/flexstart.o
 .debug_loc     0x000004ae      0x43f ./source/inverter.o
 .debug_loc     0x000008ed       0x7c ./source/moving_average.o
 .debug_loc     0x00000969      0x18f ./source/sinus.o
 .debug_loc     0x00000af8      0x4c1 ./drivers/fsl_adc16.o
 .debug_loc     0x00000fb9      0xd04 ./drivers/fsl_clock.o
 .debug_loc     0x00001cbd      0x453 ./drivers/fsl_cmp.o
 .debug_loc     0x00002110      0xdb2 ./drivers/fsl_ftm.o
 .debug_loc     0x00002ec2      0x672 ./drivers/fsl_gpio.o
 .debug_loc     0x00003534      0x256 ./drivers/fsl_pdb.o
 .debug_loc     0x0000378a     0x1177 ./drivers/fsl_uart.o
 .debug_loc     0x00004901       0x54 ./board/clock_config.o
 .debug_loc     0x00004955      0x57f ./board/peripherals.o
 .debug_loc     0x00004ed4      0x566 ./board/pin_mux.o
 .debug_loc     0x0000543a      0x6ac ./FreemasterComUart/freemaster_Kxx.o
 .debug_loc     0x00005ae6      0x620 ./FreemasterComUart/freemaster_protocol.o
 .debug_loc     0x00006106      0x22a ./FreemasterComUart/freemaster_serial.o
 .debug_loc     0x00006330       0x80 ./CMSIS/system_MKV10Z1287.o

.debug_aranges  0x00000000      0x8b8
 .debug_aranges
                0x00000000      0x160 ./startup/startup_mkv10z1287.o
 .debug_aranges
                0x00000160       0x28 ./source/flexstart.o
 .debug_aranges
                0x00000188       0x50 ./source/inverter.o
 .debug_aranges
                0x000001d8       0x38 ./source/main.o
 .debug_aranges
                0x00000210       0x20 ./source/moving_average.o
 .debug_aranges
                0x00000230       0x18 ./source/mtb.o
 .debug_aranges
                0x00000248       0x20 ./source/semihost_hardfault.o
 .debug_aranges
                0x00000268       0x20 ./source/sinus.o
 .debug_aranges
                0x00000288       0x68 ./drivers/fsl_adc16.o
 .debug_aranges
                0x000002f0      0x128 ./drivers/fsl_clock.o
 .debug_aranges
                0x00000418       0x70 ./drivers/fsl_cmp.o
 .debug_aranges
                0x00000488       0x98 ./drivers/fsl_ftm.o
 .debug_aranges
                0x00000520       0x48 ./drivers/fsl_gpio.o
 .debug_aranges
                0x00000568       0x38 ./drivers/fsl_pdb.o
 .debug_aranges
                0x000005a0       0xf8 ./drivers/fsl_uart.o
 .debug_aranges
                0x00000698       0x30 ./board/clock_config.o
 .debug_aranges
                0x000006c8       0x50 ./board/peripherals.o
 .debug_aranges
                0x00000718       0x50 ./board/pin_mux.o
 .debug_aranges
                0x00000768       0x78 ./FreemasterComUart/freemaster_Kxx.o
 .debug_aranges
                0x000007e0       0x68 ./FreemasterComUart/freemaster_protocol.o
 .debug_aranges
                0x00000848       0x40 ./FreemasterComUart/freemaster_serial.o
 .debug_aranges
                0x00000888       0x30 ./CMSIS/system_MKV10Z1287.o

.debug_ranges   0x00000000      0xe48
 .debug_ranges  0x00000000      0x150 ./startup/startup_mkv10z1287.o
 .debug_ranges  0x00000150       0x30 ./source/flexstart.o
 .debug_ranges  0x00000180      0x120 ./source/inverter.o
 .debug_ranges  0x000002a0       0x28 ./source/main.o
 .debug_ranges  0x000002c8       0x10 ./source/moving_average.o
 .debug_ranges  0x000002d8       0x10 ./source/semihost_hardfault.o
 .debug_ranges  0x000002e8       0x10 ./source/sinus.o
 .debug_ranges  0x000002f8       0xc0 ./drivers/fsl_adc16.o
 .debug_ranges  0x000003b8      0x1e0 ./drivers/fsl_clock.o
 .debug_ranges  0x00000598       0xf8 ./drivers/fsl_cmp.o
 .debug_ranges  0x00000690       0xf0 ./drivers/fsl_ftm.o
 .debug_ranges  0x00000780       0x78 ./drivers/fsl_gpio.o
 .debug_ranges  0x000007f8       0xa8 ./drivers/fsl_pdb.o
 .debug_ranges  0x000008a0      0x160 ./drivers/fsl_uart.o
 .debug_ranges  0x00000a00       0x38 ./board/clock_config.o
 .debug_ranges  0x00000a38      0x1c0 ./board/peripherals.o
 .debug_ranges  0x00000bf8      0x128 ./board/pin_mux.o
 .debug_ranges  0x00000d20       0x68 ./FreemasterComUart/freemaster_Kxx.o
 .debug_ranges  0x00000d88       0x58 ./FreemasterComUart/freemaster_protocol.o
 .debug_ranges  0x00000de0       0x48 ./FreemasterComUart/freemaster_serial.o
 .debug_ranges  0x00000e28       0x20 ./CMSIS/system_MKV10Z1287.o

.debug_line     0x00000000     0x79f0
 .debug_line    0x00000000      0x3ce ./startup/startup_mkv10z1287.o
 .debug_line    0x000003ce      0x31a ./source/flexstart.o
 .debug_line    0x000006e8      0x4c5 ./source/inverter.o
 .debug_line    0x00000bad      0x30b ./source/main.o
 .debug_line    0x00000eb8      0x18c ./source/moving_average.o
 .debug_line    0x00001044       0x30 ./source/mtb.o
 .debug_line    0x00001074       0x5b ./source/semihost_hardfault.o
 .debug_line    0x000010cf      0x1bd ./source/sinus.o
 .debug_line    0x0000128c      0x6f8 ./drivers/fsl_adc16.o
 .debug_line    0x00001984     0x119d ./drivers/fsl_clock.o
 .debug_line    0x00002b21      0x6b6 ./drivers/fsl_cmp.o
 .debug_line    0x000031d7      0xe60 ./drivers/fsl_ftm.o
 .debug_line    0x00004037      0x4e6 ./drivers/fsl_gpio.o
 .debug_line    0x0000451d      0x3d6 ./drivers/fsl_pdb.o
 .debug_line    0x000048f3     0x1308 ./drivers/fsl_uart.o
 .debug_line    0x00005bfb      0x246 ./board/clock_config.o
 .debug_line    0x00005e41      0x7fb ./board/peripherals.o
 .debug_line    0x0000663c      0x609 ./board/pin_mux.o
 .debug_line    0x00006c45      0x2ba ./FreemasterComUart/freemaster_Kxx.o
 .debug_line    0x00006eff      0x3d9 ./FreemasterComUart/freemaster_protocol.o
 .debug_line    0x000072d8      0x409 ./FreemasterComUart/freemaster_serial.o
 .debug_line    0x000076e1      0x30f ./CMSIS/system_MKV10Z1287.o

.debug_str      0x00000000     0x5bb8
 .debug_str     0x00000000      0x4c8 ./startup/startup_mkv10z1287.o
                                0x4db (size before relaxing)
 .debug_str     0x000004c8      0x215 ./source/flexstart.o
                                0x350 (size before relaxing)
 .debug_str     0x000006dd      0x87c ./source/inverter.o
                                0xa66 (size before relaxing)
 .debug_str     0x00000f59      0x348 ./source/main.o
                                0xb88 (size before relaxing)
 .debug_str     0x000012a1       0x24 ./source/moving_average.o
                                0x1f6 (size before relaxing)
 .debug_str     0x000012c5       0x1f ./source/mtb.o
                                0x122 (size before relaxing)
 .debug_str     0x000012e4       0x1f ./source/semihost_hardfault.o
                                0x122 (size before relaxing)
 .debug_str     0x00001303       0x5f ./source/sinus.o
                                0x226 (size before relaxing)
 .debug_str     0x00001362      0xad7 ./drivers/fsl_adc16.o
                               0x12c0 (size before relaxing)
 .debug_str     0x00001e39      0xa00 ./drivers/fsl_clock.o
                               0x147d (size before relaxing)
 .debug_str     0x00002839      0x3df ./drivers/fsl_cmp.o
                                0xd30 (size before relaxing)
 .debug_str     0x00002c18      0xcad ./drivers/fsl_ftm.o
                               0x1819 (size before relaxing)
 .debug_str     0x000038c5      0x199 ./drivers/fsl_gpio.o
                                0x975 (size before relaxing)
 .debug_str     0x00003a5e      0x5c1 ./drivers/fsl_pdb.o
                                0xf0a (size before relaxing)
 .debug_str     0x0000401f      0xef5 ./drivers/fsl_uart.o
                               0x1908 (size before relaxing)
 .debug_str     0x00004f14       0x49 ./board/clock_config.o
                                0xb68 (size before relaxing)
 .debug_str     0x00004f5d      0x59d ./board/peripherals.o
                               0x243a (size before relaxing)
 .debug_str     0x000054fa      0x196 ./board/pin_mux.o
                                0x6e2 (size before relaxing)
 .debug_str     0x00005690      0x1d0 ./FreemasterComUart/freemaster_Kxx.o
                                0x335 (size before relaxing)
 .debug_str     0x00005860      0x124 ./FreemasterComUart/freemaster_protocol.o
                                0x335 (size before relaxing)
 .debug_str     0x00005984      0x188 ./FreemasterComUart/freemaster_serial.o
                                0x366 (size before relaxing)
 .debug_str     0x00005b0c       0xac ./CMSIS/system_MKV10Z1287.o
                                0x361 (size before relaxing)

.comment        0x00000000       0x4c
 .comment       0x00000000       0x4c ./startup/startup_mkv10z1287.o
                                 0x4d (size before relaxing)
 .comment       0x0000004c       0x4d ./source/flexstart.o
 .comment       0x0000004c       0x4d ./source/inverter.o
 .comment       0x0000004c       0x4d ./source/main.o
 .comment       0x0000004c       0x4d ./source/moving_average.o
 .comment       0x0000004c       0x4d ./source/mtb.o
 .comment       0x0000004c       0x4d ./source/semihost_hardfault.o
 .comment       0x0000004c       0x4d ./source/sinus.o
 .comment       0x0000004c       0x4d ./drivers/fsl_adc16.o
 .comment       0x0000004c       0x4d ./drivers/fsl_clock.o
 .comment       0x0000004c       0x4d ./drivers/fsl_cmp.o
 .comment       0x0000004c       0x4d ./drivers/fsl_ftm.o
 .comment       0x0000004c       0x4d ./drivers/fsl_gpio.o
 .comment       0x0000004c       0x4d ./drivers/fsl_pdb.o
 .comment       0x0000004c       0x4d ./drivers/fsl_uart.o
 .comment       0x0000004c       0x4d ./board/clock_config.o
 .comment       0x0000004c       0x4d ./board/peripherals.o
 .comment       0x0000004c       0x4d ./board/pin_mux.o
 .comment       0x0000004c       0x4d ./FreemasterComUart/freemaster_Kxx.o
 .comment       0x0000004c       0x4d ./FreemasterComUart/freemaster_protocol.o
 .comment       0x0000004c       0x4d ./FreemasterComUart/freemaster_serial.o
 .comment       0x0000004c       0x4d ./CMSIS/system_MKV10Z1287.o
 .comment       0x0000004c       0x4d c:/nxp/mcuxpressoide_11.3.1_5262/ide/plugins/com.nxp.mcuxpresso.tools.win32_11.3.0.202008311133/tools/bin/../lib/gcc/arm-none-eabi/9.3.1/../../../../arm-none-eabi/lib/thumb/v6-m/nofp\libcr_semihost_nf.a(_cr__main.o)
 .comment       0x0000004c       0x4d c:/nxp/mcuxpressoide_11.3.1_5262/ide/plugins/com.nxp.mcuxpresso.tools.win32_11.3.0.202008311133/tools/bin/../lib/gcc/arm-none-eabi/9.3.1/../../../../arm-none-eabi/lib/thumb/v6-m/nofp\libcr_c.a(memset.o)
 .comment       0x0000004c       0x4d c:/nxp/mcuxpressoide_11.3.1_5262/ide/plugins/com.nxp.mcuxpresso.tools.win32_11.3.0.202008311133/tools/bin/../lib/gcc/arm-none-eabi/9.3.1/../../../../arm-none-eabi/lib/thumb/v6-m/nofp\libcr_c.a(alloc.o)
 .comment       0x0000004c       0x4d c:/nxp/mcuxpressoide_11.3.1_5262/ide/plugins/com.nxp.mcuxpresso.tools.win32_11.3.0.202008311133/tools/bin/../lib/gcc/arm-none-eabi/9.3.1/../../../../arm-none-eabi/lib/thumb/v6-m/nofp\libcr_c.a(initio.o)
 .comment       0x0000004c       0x4d c:/nxp/mcuxpressoide_11.3.1_5262/ide/plugins/com.nxp.mcuxpresso.tools.win32_11.3.0.202008311133/tools/bin/../lib/gcc/arm-none-eabi/9.3.1/../../../../arm-none-eabi/lib/thumb/v6-m/nofp\libcr_c.a(setvbuf.o)
 .comment       0x0000004c       0x4d c:/nxp/mcuxpressoide_11.3.1_5262/ide/plugins/com.nxp.mcuxpresso.tools.win32_11.3.0.202008311133/tools/bin/../lib/gcc/arm-none-eabi/9.3.1/../../../../arm-none-eabi/lib/thumb/v6-m/nofp\libcr_c.a(_fdopen.o)
 .comment       0x0000004c       0x4d c:/nxp/mcuxpressoide_11.3.1_5262/ide/plugins/com.nxp.mcuxpresso.tools.win32_11.3.0.202008311133/tools/bin/../lib/gcc/arm-none-eabi/9.3.1/../../../../arm-none-eabi/lib/thumb/v6-m/nofp\libcr_c.a(errno.o)
 .comment       0x0000004c       0x4d c:/nxp/mcuxpressoide_11.3.1_5262/ide/plugins/com.nxp.mcuxpresso.tools.win32_11.3.0.202008311133/tools/bin/../lib/gcc/arm-none-eabi/9.3.1/../../../../arm-none-eabi/lib/thumb/v6-m/nofp\libcr_c.a(fclose.o)
 .comment       0x0000004c       0x4d c:/nxp/mcuxpressoide_11.3.1_5262/ide/plugins/com.nxp.mcuxpresso.tools.win32_11.3.0.202008311133/tools/bin/../lib/gcc/arm-none-eabi/9.3.1/../../../../arm-none-eabi/lib/thumb/v6-m/nofp\libcr_c.a(fflush.o)
 .comment       0x0000004c       0x4d c:/nxp/mcuxpressoide_11.3.1_5262/ide/plugins/com.nxp.mcuxpresso.tools.win32_11.3.0.202008311133/tools/bin/../lib/gcc/arm-none-eabi/9.3.1/../../../../arm-none-eabi/lib/thumb/v6-m/nofp\libcr_c.a(fseek.o)
 .comment       0x0000004c       0x4d c:/nxp/mcuxpressoide_11.3.1_5262/ide/plugins/com.nxp.mcuxpresso.tools.win32_11.3.0.202008311133/tools/bin/../lib/gcc/arm-none-eabi/9.3.1/../../../../arm-none-eabi/lib/thumb/v6-m/nofp\libcr_c.a(ftell.o)
 .comment       0x0000004c       0x4d c:/nxp/mcuxpressoide_11.3.1_5262/ide/plugins/com.nxp.mcuxpresso.tools.win32_11.3.0.202008311133/tools/bin/../lib/gcc/arm-none-eabi/9.3.1/../../../../arm-none-eabi/lib/thumb/v6-m/nofp\libcr_c.a(remove.o)
 .comment       0x0000004c       0x4d c:/nxp/mcuxpressoide_11.3.1_5262/ide/plugins/com.nxp.mcuxpresso.tools.win32_11.3.0.202008311133/tools/bin/../lib/gcc/arm-none-eabi/9.3.1/../../../../arm-none-eabi/lib/thumb/v6-m/nofp\libcr_c.a(strlen.o)
 .comment       0x0000004c       0x4d c:/nxp/mcuxpressoide_11.3.1_5262/ide/plugins/com.nxp.mcuxpresso.tools.win32_11.3.0.202008311133/tools/bin/../lib/gcc/arm-none-eabi/9.3.1/../../../../arm-none-eabi/lib/thumb/v6-m/nofp\libcr_c.a(_do_fflush.o)
 .comment       0x0000004c       0x4d c:/nxp/mcuxpressoide_11.3.1_5262/ide/plugins/com.nxp.mcuxpresso.tools.win32_11.3.0.202008311133/tools/bin/../lib/gcc/arm-none-eabi/9.3.1/../../../../arm-none-eabi/lib/thumb/v6-m/nofp\libcr_c.a(_fflush.o)
 .comment       0x0000004c       0x4d c:/nxp/mcuxpressoide_11.3.1_5262/ide/plugins/com.nxp.mcuxpresso.tools.win32_11.3.0.202008311133/tools/bin/../lib/gcc/arm-none-eabi/9.3.1/../../../../arm-none-eabi/lib/thumb/v6-m/nofp\libcr_c.a(_writebuf.o)
 .comment       0x0000004c       0x4d c:/nxp/mcuxpressoide_11.3.1_5262/ide/plugins/com.nxp.mcuxpresso.tools.win32_11.3.0.202008311133/tools/bin/../lib/gcc/arm-none-eabi/9.3.1/../../../../arm-none-eabi/lib/thumb/v6-m/nofp\libcr_c.a(_deferredlazyseek.o)
 .comment       0x0000004c       0x4d c:/nxp/mcuxpressoide_11.3.1_5262/ide/plugins/com.nxp.mcuxpresso.tools.win32_11.3.0.202008311133/tools/bin/../lib/gcc/arm-none-eabi/9.3.1/../../../../arm-none-eabi/lib/thumb/v6-m/nofp\libcr_semihost_nf.a(__ciob.o)

.ARM.attributes
                0x00000000       0x2a
 .ARM.attributes
                0x00000000       0x2c ./startup/startup_mkv10z1287.o
 .ARM.attributes
                0x0000002c       0x2c ./source/flexstart.o
 .ARM.attributes
                0x00000058       0x2c ./source/inverter.o
 .ARM.attributes
                0x00000084       0x2c ./source/main.o
 .ARM.attributes
                0x000000b0       0x2c ./source/moving_average.o
 .ARM.attributes
                0x000000dc       0x32 ./source/mtb.o
 .ARM.attributes
                0x0000010e       0x2c ./source/semihost_hardfault.o
 .ARM.attributes
                0x0000013a       0x2c ./source/sinus.o
 .ARM.attributes
                0x00000166       0x2c ./drivers/fsl_adc16.o
 .ARM.attributes
                0x00000192       0x2c ./drivers/fsl_clock.o
 .ARM.attributes
                0x000001be       0x2c ./drivers/fsl_cmp.o
 .ARM.attributes
                0x000001ea       0x2c ./drivers/fsl_ftm.o
 .ARM.attributes
                0x00000216       0x2c ./drivers/fsl_gpio.o
 .ARM.attributes
                0x00000242       0x2c ./drivers/fsl_pdb.o
 .ARM.attributes
                0x0000026e       0x2c ./drivers/fsl_uart.o
 .ARM.attributes
                0x0000029a       0x2c ./board/clock_config.o
 .ARM.attributes
                0x000002c6       0x2c ./board/peripherals.o
 .ARM.attributes
                0x000002f2       0x2c ./board/pin_mux.o
 .ARM.attributes
                0x0000031e       0x2c ./FreemasterComUart/freemaster_Kxx.o
 .ARM.attributes
                0x0000034a       0x2c ./FreemasterComUart/freemaster_protocol.o
 .ARM.attributes
                0x00000376       0x2c ./FreemasterComUart/freemaster_serial.o
 .ARM.attributes
                0x000003a2       0x2c ./CMSIS/system_MKV10Z1287.o
 .ARM.attributes
                0x000003ce       0x2c c:/nxp/mcuxpressoide_11.3.1_5262/ide/plugins/com.nxp.mcuxpresso.tools.win32_11.3.0.202008311133/tools/bin/../lib/gcc/arm-none-eabi/9.3.1/../../../../arm-none-eabi/lib/thumb/v6-m/nofp\libcr_semihost_nf.a(_cr__main.o)
 .ARM.attributes
                0x000003fa       0x2c c:/nxp/mcuxpressoide_11.3.1_5262/ide/plugins/com.nxp.mcuxpresso.tools.win32_11.3.0.202008311133/tools/bin/../lib/gcc/arm-none-eabi/9.3.1/../../../../arm-none-eabi/lib/thumb/v6-m/nofp\libcr_c.a(memset.o)
 .ARM.attributes
                0x00000426       0x2c c:/nxp/mcuxpressoide_11.3.1_5262/ide/plugins/com.nxp.mcuxpresso.tools.win32_11.3.0.202008311133/tools/bin/../lib/gcc/arm-none-eabi/9.3.1/../../../../arm-none-eabi/lib/thumb/v6-m/nofp\libcr_c.a(alloc.o)
 .ARM.attributes
                0x00000452       0x2c c:/nxp/mcuxpressoide_11.3.1_5262/ide/plugins/com.nxp.mcuxpresso.tools.win32_11.3.0.202008311133/tools/bin/../lib/gcc/arm-none-eabi/9.3.1/../../../../arm-none-eabi/lib/thumb/v6-m/nofp\libcr_c.a(initio.o)
 .ARM.attributes
                0x0000047e       0x2c c:/nxp/mcuxpressoide_11.3.1_5262/ide/plugins/com.nxp.mcuxpresso.tools.win32_11.3.0.202008311133/tools/bin/../lib/gcc/arm-none-eabi/9.3.1/../../../../arm-none-eabi/lib/thumb/v6-m/nofp\libcr_c.a(setvbuf.o)
 .ARM.attributes
                0x000004aa       0x2c c:/nxp/mcuxpressoide_11.3.1_5262/ide/plugins/com.nxp.mcuxpresso.tools.win32_11.3.0.202008311133/tools/bin/../lib/gcc/arm-none-eabi/9.3.1/../../../../arm-none-eabi/lib/thumb/v6-m/nofp\libcr_c.a(_fdopen.o)
 .ARM.attributes
                0x000004d6       0x31 c:/nxp/mcuxpressoide_11.3.1_5262/ide/plugins/com.nxp.mcuxpresso.tools.win32_11.3.0.202008311133/tools/bin/../lib/gcc/arm-none-eabi/9.3.1/../../../../arm-none-eabi/lib/thumb/v6-m/nofp\libcr_c.a(errno.o)
 .ARM.attributes
                0x00000507       0x2c c:/nxp/mcuxpressoide_11.3.1_5262/ide/plugins/com.nxp.mcuxpresso.tools.win32_11.3.0.202008311133/tools/bin/../lib/gcc/arm-none-eabi/9.3.1/../../../../arm-none-eabi/lib/thumb/v6-m/nofp\libcr_c.a(fclose.o)
 .ARM.attributes
                0x00000533       0x2c c:/nxp/mcuxpressoide_11.3.1_5262/ide/plugins/com.nxp.mcuxpresso.tools.win32_11.3.0.202008311133/tools/bin/../lib/gcc/arm-none-eabi/9.3.1/../../../../arm-none-eabi/lib/thumb/v6-m/nofp\libcr_c.a(fflush.o)
 .ARM.attributes
                0x0000055f       0x2c c:/nxp/mcuxpressoide_11.3.1_5262/ide/plugins/com.nxp.mcuxpresso.tools.win32_11.3.0.202008311133/tools/bin/../lib/gcc/arm-none-eabi/9.3.1/../../../../arm-none-eabi/lib/thumb/v6-m/nofp\libcr_c.a(fseek.o)
 .ARM.attributes
                0x0000058b       0x2c c:/nxp/mcuxpressoide_11.3.1_5262/ide/plugins/com.nxp.mcuxpresso.tools.win32_11.3.0.202008311133/tools/bin/../lib/gcc/arm-none-eabi/9.3.1/../../../../arm-none-eabi/lib/thumb/v6-m/nofp\libcr_c.a(ftell.o)
 .ARM.attributes
                0x000005b7       0x2c c:/nxp/mcuxpressoide_11.3.1_5262/ide/plugins/com.nxp.mcuxpresso.tools.win32_11.3.0.202008311133/tools/bin/../lib/gcc/arm-none-eabi/9.3.1/../../../../arm-none-eabi/lib/thumb/v6-m/nofp\libcr_c.a(remove.o)
 .ARM.attributes
                0x000005e3       0x2c c:/nxp/mcuxpressoide_11.3.1_5262/ide/plugins/com.nxp.mcuxpresso.tools.win32_11.3.0.202008311133/tools/bin/../lib/gcc/arm-none-eabi/9.3.1/../../../../arm-none-eabi/lib/thumb/v6-m/nofp\libcr_c.a(strlen.o)
 .ARM.attributes
                0x0000060f       0x2c c:/nxp/mcuxpressoide_11.3.1_5262/ide/plugins/com.nxp.mcuxpresso.tools.win32_11.3.0.202008311133/tools/bin/../lib/gcc/arm-none-eabi/9.3.1/../../../../arm-none-eabi/lib/thumb/v6-m/nofp\libcr_c.a(_do_fflush.o)
 .ARM.attributes
                0x0000063b       0x2c c:/nxp/mcuxpressoide_11.3.1_5262/ide/plugins/com.nxp.mcuxpresso.tools.win32_11.3.0.202008311133/tools/bin/../lib/gcc/arm-none-eabi/9.3.1/../../../../arm-none-eabi/lib/thumb/v6-m/nofp\libcr_c.a(_fflush.o)
 .ARM.attributes
                0x00000667       0x2c c:/nxp/mcuxpressoide_11.3.1_5262/ide/plugins/com.nxp.mcuxpresso.tools.win32_11.3.0.202008311133/tools/bin/../lib/gcc/arm-none-eabi/9.3.1/../../../../arm-none-eabi/lib/thumb/v6-m/nofp\libcr_c.a(_writebuf.o)
 .ARM.attributes
                0x00000693       0x2c c:/nxp/mcuxpressoide_11.3.1_5262/ide/plugins/com.nxp.mcuxpresso.tools.win32_11.3.0.202008311133/tools/bin/../lib/gcc/arm-none-eabi/9.3.1/../../../../arm-none-eabi/lib/thumb/v6-m/nofp\libcr_c.a(_deferredlazyseek.o)
 .ARM.attributes
                0x000006bf       0x1c c:/nxp/mcuxpressoide_11.3.1_5262/ide/plugins/com.nxp.mcuxpresso.tools.win32_11.3.0.202008311133/tools/bin/../lib/gcc/arm-none-eabi/9.3.1/thumb/v6-m/nofp\libcr_eabihelpers.a(division_32.o)
 .ARM.attributes
                0x000006db       0x1c c:/nxp/mcuxpressoide_11.3.1_5262/ide/plugins/com.nxp.mcuxpresso.tools.win32_11.3.0.202008311133/tools/bin/../lib/gcc/arm-none-eabi/9.3.1/thumb/v6-m/nofp\libcr_eabihelpers.a(division_64.o)
 .ARM.attributes
                0x000006f7       0x1c c:/nxp/mcuxpressoide_11.3.1_5262/ide/plugins/com.nxp.mcuxpresso.tools.win32_11.3.0.202008311133/tools/bin/../lib/gcc/arm-none-eabi/9.3.1/thumb/v6-m/nofp\libcr_eabihelpers.a(division_idiv0.o)
 .ARM.attributes
                0x00000713       0x1c c:/nxp/mcuxpressoide_11.3.1_5262/ide/plugins/com.nxp.mcuxpresso.tools.win32_11.3.0.202008311133/tools/bin/../lib/gcc/arm-none-eabi/9.3.1/thumb/v6-m/nofp\libcr_eabihelpers.a(llong.o)
 .ARM.attributes
                0x0000072f       0x1c c:/nxp/mcuxpressoide_11.3.1_5262/ide/plugins/com.nxp.mcuxpresso.tools.win32_11.3.0.202008311133/tools/bin/../lib/gcc/arm-none-eabi/9.3.1/thumb/v6-m/nofp\libcr_eabihelpers.a(memcpy.o)
 .ARM.attributes
                0x0000074b       0x1c c:/nxp/mcuxpressoide_11.3.1_5262/ide/plugins/com.nxp.mcuxpresso.tools.win32_11.3.0.202008311133/tools/bin/../lib/gcc/arm-none-eabi/9.3.1/thumb/v6-m/nofp\libcr_eabihelpers.a(thumb1_switch_helpers.o)
 .ARM.attributes
                0x00000767       0x31 c:/nxp/mcuxpressoide_11.3.1_5262/ide/plugins/com.nxp.mcuxpresso.tools.win32_11.3.0.202008311133/tools/bin/../lib/gcc/arm-none-eabi/9.3.1/../../../../arm-none-eabi/lib/thumb/v6-m/nofp\libcr_semihost_nf.a(__ciob.o)
 .ARM.attributes
                0x00000798       0x1c c:/nxp/mcuxpressoide_11.3.1_5262/ide/plugins/com.nxp.mcuxpresso.tools.win32_11.3.0.202008311133/tools/bin/../lib/gcc/arm-none-eabi/9.3.1/../../../../arm-none-eabi/lib/thumb/v6-m/nofp\libcr_semihost_nf.a(__sys_close.o)
 .ARM.attributes
                0x000007b4       0x1c c:/nxp/mcuxpressoide_11.3.1_5262/ide/plugins/com.nxp.mcuxpresso.tools.win32_11.3.0.202008311133/tools/bin/../lib/gcc/arm-none-eabi/9.3.1/../../../../arm-none-eabi/lib/thumb/v6-m/nofp\libcr_semihost_nf.a(__sys_flen.o)
 .ARM.attributes
                0x000007d0       0x1c c:/nxp/mcuxpressoide_11.3.1_5262/ide/plugins/com.nxp.mcuxpresso.tools.win32_11.3.0.202008311133/tools/bin/../lib/gcc/arm-none-eabi/9.3.1/../../../../arm-none-eabi/lib/thumb/v6-m/nofp\libcr_semihost_nf.a(__sys_istty.o)
 .ARM.attributes
                0x000007ec       0x1c c:/nxp/mcuxpressoide_11.3.1_5262/ide/plugins/com.nxp.mcuxpresso.tools.win32_11.3.0.202008311133/tools/bin/../lib/gcc/arm-none-eabi/9.3.1/../../../../arm-none-eabi/lib/thumb/v6-m/nofp\libcr_semihost_nf.a(__sys_remove.o)
 .ARM.attributes
                0x00000808       0x1c c:/nxp/mcuxpressoide_11.3.1_5262/ide/plugins/com.nxp.mcuxpresso.tools.win32_11.3.0.202008311133/tools/bin/../lib/gcc/arm-none-eabi/9.3.1/../../../../arm-none-eabi/lib/thumb/v6-m/nofp\libcr_semihost_nf.a(__sys_seek.o)
 .ARM.attributes
                0x00000824       0x1c c:/nxp/mcuxpressoide_11.3.1_5262/ide/plugins/com.nxp.mcuxpresso.tools.win32_11.3.0.202008311133/tools/bin/../lib/gcc/arm-none-eabi/9.3.1/../../../../arm-none-eabi/lib/thumb/v6-m/nofp\libcr_semihost_nf.a(__sys_tmpnam.o)
 .ARM.attributes
                0x00000840       0x1c c:/nxp/mcuxpressoide_11.3.1_5262/ide/plugins/com.nxp.mcuxpresso.tools.win32_11.3.0.202008311133/tools/bin/../lib/gcc/arm-none-eabi/9.3.1/../../../../arm-none-eabi/lib/thumb/v6-m/nofp\libcr_semihost_nf.a(__sys_write.o)

.debug_frame    0x00000000     0x14bc
 .debug_frame   0x00000000      0x3bc ./startup/startup_mkv10z1287.o
 .debug_frame   0x000003bc       0x40 ./source/flexstart.o
 .debug_frame   0x000003fc       0x94 ./source/inverter.o
 .debug_frame   0x00000490       0x7c ./source/main.o
 .debug_frame   0x0000050c       0x30 ./source/moving_average.o
 .debug_frame   0x0000053c       0x20 ./source/semihost_hardfault.o
 .debug_frame   0x0000055c       0x30 ./source/sinus.o
 .debug_frame   0x0000058c       0xe0 ./drivers/fsl_adc16.o
 .debug_frame   0x0000066c      0x360 ./drivers/fsl_clock.o
 .debug_frame   0x000009cc       0xdc ./drivers/fsl_cmp.o
 .debug_frame   0x00000aa8      0x1b4 ./drivers/fsl_ftm.o
 .debug_frame   0x00000c5c       0x70 ./drivers/fsl_gpio.o
 .debug_frame   0x00000ccc       0x64 ./drivers/fsl_pdb.o
 .debug_frame   0x00000d30      0x2a0 ./drivers/fsl_uart.o
 .debug_frame   0x00000fd0       0x50 ./board/clock_config.o
 .debug_frame   0x00001020       0xd4 ./board/peripherals.o
 .debug_frame   0x000010f4       0x94 ./board/pin_mux.o
 .debug_frame   0x00001188      0x13c ./FreemasterComUart/freemaster_Kxx.o
 .debug_frame   0x000012c4      0x120 ./FreemasterComUart/freemaster_protocol.o
 .debug_frame   0x000013e4       0x88 ./FreemasterComUart/freemaster_serial.o
 .debug_frame   0x0000146c       0x50 ./CMSIS/system_MKV10Z1287.o
